:100000000C946C000C9484110C94B1110C94940019
:100010000C9494000C9494000C9494000C94940010
:100020000C9494000C9494000C9494000C94940000
:100030000C9494000C9494000C9494000C949400F0
:100040000C94DE110C9494000C9414150C94461529
:100050000C9494000C9494000C9494000C949400D0
:100060000C94ED0B0C949400DD06E106DD06E10630
:10007000DD06E106E40600000008000201000003BE
:100080000407000000000000000001020408102026
:10009000408001020408102001020408102004041A
:1000A0000404040404040202020202020303030320
:1000B00003030000000023002600290000000000C8
:1000C000250028002B0000000000240027002A0043
:1000D00087060B0B7615950611241FBECFEFD8E0CF
:1000E000DEBFCDBF12E0A0E0B1E0E8E8F3E302C07C
:1000F00005900D92A83FB107D9F724E0A8EFB2E030
:1001000001C01D92A33EB207E1F710E0C6EDD0E0BA
:1001100004C02297FE010E946B18C03DD107C9F7A9
:100120000E94BA150C94B7190C940000CF92DF927C
:10013000EF92FF920F931F93E82FF92F05C0015004
:1001400011092109310961F1908196239417B9F3BE
:1001500005C0015011092109310911F1908196233F
:100160009413F7CFC12CD12CE12CF12C0AC08FEFC6
:10017000C81AD80AE80AF80A0C151D052E053F050D
:1001800079F080818623841791F36C2D7D2D8E2D3F
:100190009F2D1F910F91FF90EF90DF90CF900895CA
:1001A00060E070E080E090E01F910F91FF90EF9091
:1001B000DF90CF900895DC01ED91FC910190F081EA
:1001C000E02D0994DC01ED91FC910190F081E02D8E
:1001D00009946FEF70E082E494E00E94E20065E52C
:1001E00070E082E494E00E94E20060E070E082E46B
:1001F00094E00C94E200CF93DF93EC016FEF70E09A
:1002000082E494E00E94E20065E570E082E494E01C
:100210000E94E20063E070E082E494E00E94DB0070
:1002200062E070E082E494E00E94E200BE01772781
:1002300082E494E00E94DB006D2F70E082E494E0A1
:10024000DF91CF910C94DB000E94DB0961E08DE02F
:100250000E94441326E040E052EC61E070E082E44A
:1002600094E00E94B21464EF71E080E090E00E949C
:10027000571260E08DE00E9444130E94270685E03B
:100280000E94190584E690E00E94060662E571E08E
:1002900082E494E00C940B16CF93C82F6FEF70E0BC
:1002A00082E494E00E94E20065E570E082E494E07C
:1002B0000E94E20062E070E082E494E00E94DB00D1
:1002C00061E070E082E494E00E94E2006C2F82E43E
:1002D00094E0CF910C944D140F931F93CF93DF9321
:1002E00082E494E00E94CF13181619060CF087C11F
:1002F00082E494E00E94E813E091F80291E09E0FFE
:100300009093F802F0E0E750FD4F8083923051F077
:10031000933069F0913071F494E0909306018F3F2F
:1003200019F408C0853531F01092F80203C08D5FD2
:10033000809306019091F80280910601981708F4C5
:1003400058C18091FC028A3009F4BFC098F585300D
:1003500009F4A5C0C8F4823009F493C048F4813090
:1003600009F045C18091FE026091FD0290E0A0C0BD
:10037000833009F48CC0843009F039C14091FE0209
:100380006091FD0282E088C0873009F494C008F4CF
:100390008CC0883009F494C0893009F028C180915C
:1003A000FE0290E0982F88272091FD02822B0E9468
:1003B0000606E4C0863109F4E4C0D0F4833109F4C0
:1003C000CAC020F48B3009F4B2C011C1843109F4E1
:1003D000CAC0853109F00BC18091FD0261E0825FE6
:1003E0000E940B138091FD026091FE02825FC4C0E7
:1003F000883109F4DCC008F4CCC0893109F4E2C0CA
:10040000803809F0F4C06FEF70E082E494E00E945D
:10041000E20065E570E082E494E00E94E20066E0BC
:1004200070E082E494E00E94E20060E870E082E420
:1004300094E00E94E2000E94C909BC0182E494E0B9
:100440000E94E2000E94D109EC01BC01772782E4FE
:1004500094E00E94DB006D2F70E082E494E00E9443
:10046000DB000E94D609EC01BC01772782E494E00E
:100470000E94DB006D2F70E082E494E00E94DB00BC
:10048000B6C04091FE026091FD0280E005C040913F
:10049000FE026091FD0281E00E94D6036FC0409190
:1004A000FE026091FD0283E0F7CF60E088EC90E00F
:1004B0000E94860463C08091FD020E9419055EC0FF
:1004C0008091FD020E94450559C00E94CA058B011A
:1004D000D82FC92F6FEF70E082E494E00E94E20011
:1004E00065E570E082E494E00E94E20065E070E07F
:1004F00082E494E00E94DB0064E070E082E494E037
:100500000E94E200602F82E494E00E944D14612F6B
:1005100082E494E00E944D146D2F82E494E00E94E6
:100520004D146C2F82E494E00E944D1460C0E09161
:10053000FD028FEF8E0F843060F4F0E0E759FE4F3C
:1005400080810E947A1321E0892B09F020E0822F1C
:100550002BC081E029C061E08DE00E940B13609107
:10056000FD028DE009C061E08091FD020E940B1345
:100570006091FE028091FD020E9444130E94E900F6
:1005800036C060E08091FD020E940B138091FD0255
:1005900009C08091FD0260E0825F0E940B13809190
:1005A000FD02825F0E947A130E944C0120C080915C
:1005B000FD0260E0825F0E940B138091FD0261E00A
:1005C00070E010C08091FD0260E0825F0E940B131A
:1005D0006091FF0270E0762F66278091FE02682B03
:1005E0008091FD02825F0E94F7090E94FB00109239
:1005F000F8028091F802843310F01092F802DF9133
:10060000CF911F910F910C9420046F927F928F9243
:100610009F92AF92BF92CF92DF92EF92FF920F9391
:100620001F93CF93DF93CDB7DEB728970FB6F8941B
:10063000DEBF0FBECDBF962E7C018E010F5F1F4F18
:100640006E0129E0C20ED11C702E612E88E0882E2A
:100650009EE6A92EB12CD7018D917D01EAE0F1E053
:10066000A72DB62D982D01900D929A95E1F7D801FE
:10067000ED918D01B8EC8B9FC0011124805A9F40F1
:10068000B5010E9433189B0128533F4F2139F1E0F7
:100690003F0768F440E050E06E2F8BE493E00E9447
:1006A000290D64E170E080E090E00E9457120C1583
:1006B0001D0589F690924A0380913A0490913B047B
:1006C000A0913C04B0913D0480934603909347036E
:1006D000A0934803B093490328960FB6F894DEBF61
:1006E0000FBECDBFDF91CF911F910F91FF90EF9083
:1006F000DF90CF90BF90AF909F908F907F906F9042
:10070000089590934503809344030C940503CF927E
:10071000DF92EF92FF92CF93DF936B017C01C0E0F9
:10072000D0E080912F0390913003C817D90798F437
:10073000A7019601BE018DE293E00E94FE108DE2BA
:1007400093E00E94E10F6AE070E080E090E00E9498
:1007500057122196E6CFDF91CF91FF90EF90DF9077
:10076000CF900895CF93C0E020E030E040E050E02B
:100770006C2F8BE493E00E94290DCF5FC830A1F766
:1007800010924A0380913A0490913B04A0913C045A
:10079000B0913D048093460390934703A093480390
:1007A000B093490310924303CF910895CF93DF9301
:1007B000CDB7DEB728970FB6F894DEBF0FBECDBF1A
:1007C0008430A8F598E0E2E1F1E0DE0111960190B5
:1007D0000D929A95E1F790E0880F991FA1E0B0E0A3
:1007E000AC0FBD1FA80FB91FFC0128E0629FE00DF0
:1007F000F11D1124E257FD4F20812C930196A1E0B9
:10080000B0E0AC0FBD1FA80FB91FFC0128E0429F4C
:10081000E00DF11D1124E257FD4F80818C9367E0BC
:10082000CE0101960E94810380E1809343032896C4
:100830000FB6F894DEBF0FBECDBFDF91CF91089504
:1008400080913A0490913B04A0913C04B0913D0406
:1008500040914603509147036091480370914903CA
:10086000841B950BA60BB70B20914A03223029F06D
:10087000273019F0211113C0089580322FEB920711
:1008800022E0A207B10518F00E94B20306C090FF53
:1008900004C061E08DE00C94441360E0FBCF409114
:1008A00007015091080160E070E084179507A607E2
:1008B000B70758F1243091F028F4213021F123308A
:1008C00031F00895253091F02630B9F008958091E7
:1008D00044039091450364E0089606C08091440368
:1008E0009091450365E040960C9405038091440384
:1008F0009091450366E04896F7CF63E0809144030A
:1009000090914503F1CF0C94B2030895CF93DF93F8
:10091000CDB7DEB728970FB6F894DEBF0FBECDBFB8
:10092000909308018093070180914303861709F48F
:1009300077C060934303611110C088E0EAE1F1E001
:10094000DE01119601900D928A95E1F780914A039C
:10095000823008F465C061E04DC0613021F463E08D
:100960008EE692E05BC0643021F463E08EE492E0B6
:1009700055C0623021F463E08EE292E04FC06330F4
:1009800019F48EE092E04AC0653021F463E08EEE07
:1009900091E044C0663021F463E08EEC91E03EC00B
:1009A000673021F488E0E2E2F1E01DC0683021F414
:1009B00088E0EAE2F1E017C0693021F488E0E2E380
:1009C000F1E011C06A3021F488E0EAE3F1E00BC005
:1009D0006B3021F488E0E2E4F1E005C06C3069F4AA
:1009E00088E0EAE4F1E0DE01119601900D928A952B
:1009F000E1F762E0CE01019611C06D3021F463E0B1
:100A00008EEA91E00BC06E3021F463E08EE891E055
:100A100005C06F3029F463E08EE691E00E94810307
:100A200028960FB6F894DEBF0FBECDBFDF91CF91F1
:100A300008958330B1F028F4813049F0823061F0BC
:100A400008958530C1F090F08630C9F0089560E0D7
:100A500070E08FEF90E017C060E07FEF80E090E003
:100A600012C06FEF70E080E090E00DC060E070E8D1
:100A700080E890E008C060E870E0CB0104C060E866
:100A800070E880E090E00C9487035F926F927F9211
:100A90008F929F92AF92BF92CF92DF92EF92FF928E
:100AA0000F931F93CF93DF93B12C00E010E0C82E7B
:100AB000D12CE12CF12CA12CC0E0D0E0502E602EE6
:100AC000609477247A947B0C3EEF832E8B0C4DEF51
:100AD000942E9B0C80912F0390913003C817D90757
:100AE000C0F58C2F962D9C1B953580F4800F282FF8
:100AF000220F280F2E5F822F90E0A0E0B0E0AC0123
:100B000033272227892D8A19282B1AC0850D9A3A56
:100B100058F4282F220F280F2F5F30E040E050E0DC
:100B2000882D8A19382B0CC0982F990F980F272DD4
:100B30002A19422F50E060E070E033272227392B3A
:100B4000BE018DE293E00E94FE10219683E0A80E84
:100B5000C1CF8DE293E00E94E10FC701B6010E9470
:100B600057120F5F1F4F2DEFB20E011581E01807CE
:100B700009F0A1CFDF91CF911F910F91FF90EF90DE
:100B8000DF90CF90BF90AF909F908F907F906F90AD
:100B90005F900895CF92DF92EF92FF9260E08FE036
:100BA0000E94441382E090E00E947F1261E08FE097
:100BB0000E9444138AE090E00E947F1260E08FE080
:100BC0000E94441320E432E44FE050E061E08EE004
:100BD0000E94A3130E941A176B017C0120E030E0F1
:100BE000A9010E94CC1718164CF426E933E44BE80F
:100BF0005CE3C701B6010E94D01703C060E070E05B
:100C0000CB01FF90EF90DF90CF9008950F931F934B
:100C1000CF93DF938C01C0E0D0E0C017D10794F4EC
:100C200061E088E00E94441380E991E00E947F1215
:100C300060E088E00E94441380E991E00E947F1206
:100C40002196EBCFDF91CF911F910F910895CF9314
:100C5000DF93CDB7DEB728970FB6F894DEBF0FBE8F
:100C6000CDBF61E081E10E940B1361E081E10E9450
:100C7000441360E08EE00E940B1361E08FE00E945D
:100C80000B1361E088E00E940B1362E083E00E9496
:100C90000B1362E084E00E940B1362E085E00E9487
:100CA0000B1362E086E00E940B138DE293E00E943A
:100CB0005E0F8DE293E00E94E10F60E08BE493E031
:100CC0000E94BB0E40E050E068E472E48BE493E0E5
:100CD0000E94180E0E94631160E081E10E9444139B
:100CE00088E0EAE1F1E0DE01119601900D928A952B
:100CF000E1F761E0CE0101960E94810328960FB6CC
:100D0000F894DEBF0FBECDBFDF91CF9108958BE485
:100D100093E00E94210D22E530E040E150E068E0E0
:100D200070E08DE293E00C94DC108DE293E00C9483
:100D30004B0FCF92DF92EF92FF920F931F93CF93BF
:100D4000DF9382E00E947A13C82F0E943412009130
:100D50006B0310916C0320916D0330916E036B0156
:100D60007C01C01AD10AE20AF30AC114D10441E09D
:100D7000E406F10460F400916B0310916C03209180
:100D80006D0330916E039B01201B310B02C02FEFCE
:100D90003FEF60936B0370936C0380936D039093AC
:100DA0006E034091740350E04730510508F0B9C01C
:100DB000FA01EC5CFF4F0C946918C13009F0B1C026
:100DC00094C1C111AEC08DC1C9018F5A91098F352F
:100DD0009140E8F48091730380FD15C080916F030A
:100DE00090917003A0917103B0917203880F991FC5
:100DF000AA1FBB1F816080936F0390937003A09321
:100E00007103B0937203809173038F5F1CC02D50E8
:100E100032402F353140F0F480916F039091700390
:100E2000A0917103B0917203880F991FAA1FBB1F75
:100E300080936F0390937003A0937103B093720338
:100E4000809173038E5F80937303809173038E315F
:100E500020F44DC1C11149C177C010927403809133
:100E60006F0390917003A0917103B0917203209170
:100E70005203492F429546954770211104C0437093
:100E80004093520334C120915203437050E030E04C
:100E90004217530709F02BC127E0ECE5F3E0EF011F
:100EA00019922A95E9F7282F2770205A209360037A
:100EB000282F26952695269530E020513109F4E01B
:100EC000220F331FFA95E1F730935D0320935C0303
:100ED000892F8F7190E04097A4E0880F991FAA9501
:100EE000E1F790935F0380935E030E942812609362
:100EF0006703709368038093690390936A0382E0A9
:100F000090E0909354038093530361E08DE0DF9170
:100F1000CF911F910F91FF90EF90DF90CF900C94A5
:100F2000441380917403823069F128F4882361F0BE
:100F3000813061F0DCC0843009F49AC008F445C007
:100F4000853009F4D2C0D3C081E0CCC0C901875537
:100F50009A418339914110F482E0C4C02B5633404A
:100F60002F35314008F0C1C086E0809374031092A1
:100F70006F0310927003109271031092720310921B
:100F80007303B5C0C9018B529D408B3C984060F4FF
:100F900010926F03109270031092710310927203FB
:100FA0001092730383E09EC02559364027363440A3
:100FB00008F097C00E94281260936703709368033B
:100FC0008093690390936A038CC0255A31402B317A
:100FD000314008F08AC080917303803208F446C023
:100FE00080916F0390917003A0917103B09172038F
:100FF00040916F035091700360917103709172037F
:10100000892F9A2FAB2FBB2784279527A627B72791
:101010009927BB278F3F9105AF4FB10509F065C0F8
:1010200087E0ECE5F3E0DF011D928A95E9F7809116
:101030006F0390917003A0917103B0917203A0931C
:1010400060030E9428126093670370936803809383
:10105000690390936A0381E090E090935403809336
:10106000530361E08DE00E9444133FC084E03AC026
:1010700083E08093740380916F0390917003A0913B
:101080007103B0917203B695A79597958795809354
:101090006F0390937003A0937103B09372038091D8
:1010A00073038F5F80937303C901805F94408D3415
:1010B000934090F480916F0390917003A09171031D
:1010C000B0917203B06880936F0390937003A09304
:1010D0007103B09372030BC0255A31402B3131405C
:1010E00030F085E08093740302C010927403DF91A6
:1010F000CF911F910F91FF90EF90DF90CF900895C7
:101100000F931F93CF93DF93EC018091670390912E
:101110006803A0916903B0916A03892B8A2B8B2BFA
:1011200009F4D6C00E942812009167031091680349
:101130002091690330916A03601B710B820B930B42
:10114000109159036C3271408105910508F099C0E6
:101150008091530390915403029709F078C0209135
:101160005C0330915D0380915E0390915F03B90150
:1011700037FF04C066277727621B730BAC0197FF0C
:1011800004C044275527481B590B640F751F68324C
:10119000710508F44EC0D90137FD1196B595A79594
:1011A000E1E0A817B9070CF0E0E0AC0197FF02C03E
:1011B0004F5F5F4F55954795241735070CF4EE5F49
:1011C000AC0197FF02C04F5F5F4F55954795519512
:1011D00041955109241735070CF4EC5F4427552736
:1011E000481B590BA417B5070CF4E85FF0E0EA546C
:1011F000FD4FE081E0936103E33791F020F4E137A4
:1012000061F49C010DC0E43721F0E63731F49A0116
:1012100007C031952195310903C09B01369527956B
:10122000213081E0380710F02FEF30E02093620387
:1012300004C01092610310926203CD2B41F08091A3
:101240006003803621F48091610380936003111163
:101250000EC080916003882351F081E090E090936C
:1012600054038093530361E08DE00E94441387E0B0
:10127000ECE5F3E0A5E5B3E001900D928A95E1F786
:101280007BC0112309F478C087E0E5E5F3E0DF01D6
:101290001D928A95E9F781E090E090935403809342
:1012A000530360E08DE00E94441310926703109294
:1012B00068031092690310926A030E9428126093D7
:1012C000630370936403809365039093660354C033
:1012D0008091630390916403A0916503B0916603CC
:1012E000892B8A2B8B2B51F40E9428126093630365
:1012F0007093640380936503909366030E942812A1
:10130000009163031091640320916503309166039B
:10131000601B710B820B930B20916003222369F0F9
:101320006D32B1E07B078105910538F027E0ECE5EF
:10133000F3E0DF011D922A95E9F7DC01CB0117E00C
:10134000B695A795979587951A95D1F70097A1051A
:10135000B10591F08F709927AA27BB270097A105A7
:10136000B10511F461E005C00197A105B10521F4B3
:1013700060E08DE00E9444138091530390915403E8
:101380001092540310925303DF91CF911F910F914C
:10139000089581E090E00E9480088091590390E0D8
:1013A00008958091550390915603089580915703B5
:1013B00090915803089561E08DE00E940B1383E043
:1013C00084BD85BD60E082E00E940B1341E050E0E7
:1013D00069E976E080E00E9464111092740387E06E
:1013E000ECE5F3E0DF011D928A95E9F70895AF92ED
:1013F000BF92CF92DF92EF92FF921F93CF93DF9332
:10140000182FEB01209711F4C1E0D0E0A12CB12CF2
:10141000C12CD12C7601812F0E94C512AC01662708
:1014200057FD6095762FC40ED51EE61EF71E8FEF72
:10143000A81AB80AAC16BD0671F7950140E050E055
:10144000C701B6010E944718A1E7B2E00E947E18CA
:1014500057E096958795779567955A95D1F7CB0183
:10146000DF91CF911F91FF90EF90DF90CF90BF90D1
:10147000AF9008958091A50390E02091A603821B70
:10148000910908952091A6038091A503281750F48F
:10149000E22FF0E0E955FC4F808190E02F5F209330
:1014A000A60308958FEF9FEF0895E091A603809122
:1014B000A503E81730F4F0E0E955FC4F808190E097
:1014C00008958FEF9FEF08950895CF92DF92EF92E6
:1014D000FF920F931F93CF93DF937C01CB018A017F
:1014E00020918103222389F0EB016B01C40ED51EEC
:1014F000CC15DD0569F06991D701ED91FC91019062
:10150000F081E02DC7010995F3CF642F0E94C40B31
:10151000C801DF91CF911F910F91FF90EF90DF9065
:10152000CF900895CF93DF931F92CDB7DEB7698335
:10153000209181032223D1F020918203203240F0B8
:1015400021E030E0FC013383228380E090E015C08D
:1015500080918303E82FF0E0EC57FC4F9981908352
:101560008F5F809383038093820305C061E0CE0187
:1015700001960E94C40B81E090E00F90DF91CF9123
:101580000895FC011382128248EE53E060E070E09F
:1015900044835583668377838AEC92E091838083CA
:1015A00008951092A6031092A5031092830310923F
:1015B00082030C940F0B862F413208F040E267EA59
:1015C00073E00E942D0B1092A6038093A50308954B
:1015D00021E00C94DB0A81E0809381036093A403F3
:1015E000109283031092820308950F93062F21E037
:1015F0004091820364E873E08091A4030E94710B20
:101600001092830310928203109281030F91089528
:1016100061E00C94F50A85E793E00C94C10A1092FE
:10162000340481E0809332041092310461E082E15D
:101630000E94441361E083E10E944413E9EBF0E06F
:1016400080818E7F808380818D7F808388E48093FA
:10165000B80085E48093BC000895413208F03FC093
:10166000909134049111FCCF91E090933404209335
:1016700032042FEF2093C70310920C04240F209301
:101680000B049093330490913304880F892B80933B
:10169000330480913104813041F4109231048091FF
:1016A00033048093BB0085EC01C085EE8093BC00C1
:1016B000809134048130E1F380910C04841710F49C
:1016C00040910C042DE034E0FB01D9018A2F821BEC
:1016D000841718F48D918193F9CF842F089580E0B9
:1016E00008950F93413208F046C09091340491114F
:1016F000FCCF92E090933404009332049FEF9093D8
:10170000C70310920C0440930B04FB016DE074E0DE
:10171000DB019A2F961B941718F491919D93F9CFA2
:101720001092330490913304880F892B80933304F3
:1017300080913104813041F410923104809133045E
:101740008093BB0085EC01C085EE8093BC00222312
:1017500021F0809134048230E1F38091C7038F3F00
:1017600061F08091C703803251F08091C7038033CC
:1017700041F483E007C081E005C080E003C082E05F
:1017800001C084E00F910895613298F420913404EF
:10179000243089F46093E903FC018BEE93E0DC01D3
:1017A0002A2F281B261718F421912D93F9CF80E0BA
:1017B000089581E0089582E0089585ED8093BC004E
:1017C0008091BC0084FDFCCF10923404089585EC18
:1017D0008093BC001092340408951F920F920FB6AC
:1017E0000F9211242F933F934F935F936F937F93A7
:1017F0008F939F93AF93BF93EF93FF938091B90023
:10180000887F803609F49CC068F5883209F45BC093
:1018100090F4803109F454C038F4882309F4F5C0F9
:10182000883009F44DC0F5C0883109F44CC08032CD
:1018300009F45DC0EEC0803409F468C048F4803318
:1018400009F455C0883309F0E4C08093C703A8C0E9
:10185000803509F44FC0883509F45DC0883409F03B
:10186000D8C0D5C0883909F4C6C0A8F4883709F4AF
:1018700067C038F4883609F463C0803709F460C063
:10188000C8C0883809F4B7C0803909F45FC080380F
:1018900009F0BFC05BC0803B09F485C038F4803AD2
:1018A00009F466C0883A09F47EC0B3C0803C09F4EC
:1018B000A6C0883C09F4A3C0883B09F489C0A9C02C
:1018C0008091330410C090910C0480910B04981700
:1018D00070F5E0910C0481E08E0F80930C04F0E031
:1018E000E35FFB4F80818093BB0085EC85C08093D4
:1018F000C7038DC0E0910C0481E08E0F80930C042F
:101900008091BB00F0E0E35FFB4F808390910C047B
:1019100080910B046DC0E0910C0481E08E0F8093E8
:101920000C048091BB00F0E0E35FFB4F808380916B
:10193000320481116CC081E08093310484EA60C07C
:1019400083E0809334041092C803CFCF8091C80302
:10195000803208F050C0E091C80381E08E0F809380
:10196000C8038091BB00F0E0E753FC4F8083BDCFFC
:101970008091C803803230F4E091C803F0E0E7536F
:10198000FC4F10820E94DD0B6091C80370E0E09173
:101990002D04F0912E0489EC93E009951092C80370
:1019A0000E94E70B36C084E0809334041092EA036F
:1019B0001092E903E0912F04F09130040995809191
:1019C000E903811105C081E08093E9031092EB03E4
:1019D000E091EA0381E08E0F8093EA03F0E0E551A5
:1019E000FC4F80818093BB009091EA038091E903D2
:1019F000981708F47ACF85E88093BC000AC085EC7C
:101A00008093BC001092340404C01092C7030E945B
:101A1000DD0BFF91EF91BF91AF919F918F917F91DE
:101A20006F915F914F913F912F910F900FBE0F904B
:101A30001F901895DC01ED91FC910190F081E02D53
:101A4000099420E4FC01208325E733E032832183DD
:101A50000895CF92DF92FF920F931F93CF93DF935E
:101A600000D0CDB7DEB76C01F62E052F132FDC01A9
:101A70006C9111968D919C9112972A8349830E94B3
:101A8000EB0AF60181819281DC01ED91FC91B4E0D9
:101A9000FB9EB00111246A5F7F4F0190F081E02D21
:101AA00009954981642F702FF601818192810E94EE
:101AB0001A0D602F70E0D60111968D919C911297AE
:101AC0000E941A0D2A81622F712FF6018181928165
:101AD0000E941A0D612F70E0D60111968D919C9194
:101AE00012970E941A0DF601818192810F900F903A
:101AF000DF91CF911F910F91FF90DF90CF900C94C9
:101B0000080B1F93CF93DF93EC01162F6881898117
:101B10009A810E94EB0A89819A81DC01ED91FC9106
:101B20000190F081E02D612F099589819A810E94B1
:101B3000080B41E0688189819A810E94E80A8981C5
:101B40009A81DC01ED91FC910680F781E02D0995E9
:101B5000DF91CF911F910895EF92FF921F93CF9342
:101B6000DF931F92CDB7DEB77C01162FDC016C919D
:101B700011968D919C91129749830E94EB0AF7016F
:101B800081819281DC01ED91FC910190F081E02D49
:101B9000612F0995F70181819281DC01ED91FC9122
:101BA0000190F081E02D4981642F0995F701818131
:101BB00092810F90DF91CF911F91FF90EF900C9445
:101BC000080B40E860E00E94AC0D6AE070E080E045
:101BD00090E00C9457120F931F93CF93DF93EC0177
:101BE000062F60E00E94810D182F1F76412F406163
:101BF00060E0CE010E94AC0D1065412F60E0CE0187
:101C00000E94AC0D402F6EEFCE010E94AC0D65E03E
:101C100070E080E090E00E945712412F4F74406ABC
:101C200060E0CE01DF91CF911F910F910C94AC0D2C
:101C30008F929F92AF92BF92CF92DF92EF92FF92DC
:101C40001F93CF93DF93EC016A017B0120E030E02A
:101C500040E85FE3C701B6010E94821687FD12C00B
:101C600020E030EC4AE555E4C701B6010E94CC17EC
:101C7000181674F4C12C20ECD22E2AE5E22E25E4AD
:101C8000F22E06C0C12CD12C30E8E32E3FE3F32E18
:101C90006B817C818D819E810E941A174B015C01B2
:101CA00020E030E040E855E4C701B6010E94D017BB
:101CB0009B01AC01C501B4010E94861620E030E012
:101CC00040E05FE30E941E1620E030E040E85FE362
:101CD0000E941D166B017C0120E030E040E450E4DE
:101CE0000E94821687FD11C020E030E04FE753E4E8
:101CF000C701B6010E94CC17181664F4C12CD12C70
:101D00008FE7E82E83E4F82E05C0C12CD12C90E497
:101D1000E92EFE2C60E0CE010E94810D182F482F85
:101D20004F76406160E0CE010E94AC0DC701B60164
:101D30000E94EE16462F6EEFCE010E94AC0D412F91
:101D400060E0CE010E94AC0D65E070E080E090E0C4
:101D50000E945712412F406A60E0CE01DF91CF917F
:101D60001F91FF90EF90DF90CF90BF90AF909F902A
:101D70008F900C94AC0DAF92BF92CF92DF92EF9206
:101D8000FF921F93CF93DF931F92CDB7DEB75C0115
:101D9000FC018181928169830E94D10AC5010E9460
:101DA000E10D6981662321F0C5010E94EB0D5FC042
:101DB000F50163817481858196810E941A1720E064
:101DC00030E04AE75AE40E94861620E030E040E026
:101DD0005FE30E941E1620E030E040E85FE30E94CF
:101DE0001D166B017C0120E030E040E450E40E94CD
:101DF000821687FD11C020E030E04FE753E4C701B1
:101E0000B6010E94CC17181664F4C12CD12C4FE7F0
:101E1000E42E43E4F42E05C0C12CD12C50E4E52E71
:101E2000FE2C60E0C5010E94810D182F482F4F76CF
:101E3000406160E0C5010E94AC0DC701B6010E947F
:101E4000EE16462F6EEFC5010E94AC0D412F60E0EB
:101E5000C5010E94AC0D65E070E080E090E00E945A
:101E60005712412F406A60E0C5010E94AC0D80E42A
:101E700098E7ADE7B1E0F50183839483A583B6834A
:101E80000F90DF91CF911F91FF90EF90DF90CF9057
:101E9000BF90AF900895CF93DF93EC0189859A8529
:101EA0000E9421198E819F8197FD05C060E0DF911E
:101EB000CF910C940B13DF91CF910895CF93DF93C3
:101EC000EC018E819F8197FD07C061E00E940B139A
:101ED00060E08E810E94441381E08983DF91CF917D
:101EE0000895EF92FF920F931F93CF93DF93EC012E
:101EF0007B0189859A850E9421199E858B8598137F
:101F000003C083E090E002C084E090E08E9D8001F9
:101F10008F9D100D9E9D100D11241D830C83C801F3
:101F20000E9489189A878987009741F0A80160E08C
:101F300070E00E94B019FB82EA8204C01D821C82FC
:101F40001B821A82DF91CF911F910F91FF90EF902A
:101F50000895FC0121E096858385981320E0CB014C
:101F600036E0969587953A95E1F7482F4370468776
:101F7000CB0154E0969587955A95E1F7382F337049
:101F80003387CB019695879596958795837084873F
:101F9000862F8370858781E06F3F710511F008F00F
:101FA00080E0808381859285892B51F091E04313F5
:101FB00090E0921729F062817381CF010C94710F28
:101FC0000895CF92DF92EF92FF920F931F93CF93DA
:101FD000DF93CDB7DEB729970FB6F894DEBF0FBEFB
:101FE000CDBF8C01DC0119968D919C911A97892B9C
:101FF00009F49FC00E943412F801C784D088E18898
:10200000F2886C197D098E099F096C327140810537
:10201000910580F3F894D80114968D919C911597B1
:102020009A83898319960D90BC91A02D7D01EFEFC5
:10203000EE1AFE0A8C918987D8019C9153960D90D7
:10204000BC91A02DF8018589992309F42EC09C919B
:10205000982B98879C91809589238F838F818E837D
:1020600088E08D8358856F8149853D812E818981E6
:102070009A81F7015C9347FD252F3A952C93262FE3
:1020800039F0441F00C000006C93000000C0F2CF84
:1020900038E041916C930000019761F7F801B48B2F
:1020A000A38B49873D832E8338C09C91982B9887BA
:1020B0009C91809589238F838F818C8388E08B838B
:1020C00058856F8149853B812C8189819A81F701EF
:1020D0005C9347FD252F00C000C02C9300C000C0BA
:1020E00000C000C000C06C930000262F3A9541F05C
:1020F000441F000000C000C000C000C000C0E8CF06
:1021000038E0419100C06C9300C0019709F7F801D5
:10211000B48BA38B49873B832C839A8389837894E0
:102120000E943412D8011F966D937D938D939C93DA
:10213000529729960FB6F894DEBF0FBECDBFDF9140
:10214000CF911F910F91FF90EF90DF90CF90089566
:102150000F931F93CF93DF93EC018B018981882329
:1021600039F08E819F8197FD03C060E00E940B13C0
:102170001F830E838981882341F061E0802F0E94B4
:102180000B1360E0802F0E944413F801E256FF4FCA
:10219000E491F0E0EE0FFF1FE454FF4F859194911E
:1021A0009C8B8B8BF801E657FF4F04910D8BDF91D1
:1021B000CF911F910F910895EF92FF920F931F936C
:1021C000CF93DF93EC018B017A01198218861A866E
:1021D00019861F86188A198A1A8AB9010E94A90FBE
:1021E000B801CE010E94710FB701CE01DF91CF91EE
:1021F0001F910F91FF90EF900C94A810CF92DF9257
:10220000EF92FF920F931F93CF93DF93FC01828194
:1022100093816817790708F04DC0CA01AA27BB2728
:10222000182FC32ED42EE52EFF24DC2DC22F0085BF
:10223000002361F0809FC0011124192FC09E60010E
:102240001124DD2D209FC0011124C92FF684838520
:10225000A185B285F81208C0CB01880F991F860F9F
:10226000971F8A0F9B1F17C0CB01880F991F880FDC
:10227000991F8A0F9B1F452F552766277727DC015B
:10228000AF0DB11D002329F0409F90011124232F91
:1022900001C0242F2C932385DC01A20FB11D1C93B8
:1022A0002485DC01A20FB11DDC932585FC01E20F22
:1022B000F11DC083DF91CF911F910F91FF90EF909F
:1022C000DF90CF90089508958230E8F4E82FF0E091
:1022D000EE0FFF1FEB5CFB4F71836083813041F099
:1022E000809169008C7F842B80936900E89A08951F
:1022F00080916900440F551F440F551F837F842B25
:1023000080936900E99A08951F920F920FB60F9279
:1023100011242F933F934F935F936F937F938F93EA
:102320009F93AF93BF93EF93FF9380913504909168
:102330003604892B29F0E0913504F0913604099593
:10234000FF91EF91BF91AF919F918F917F916F918D
:102350005F914F913F912F910F900FBE0F901F9063
:1023600018951F920F920FB60F9211242F933F933F
:102370004F935F936F937F938F939F93AF93BF938D
:10238000EF93FF938091370490913804892B29F0C3
:10239000E0913704F09138040995FF91EF91BF91D6
:1023A000AF919F918F917F916F915F914F913F91ED
:1023B0002F910F900FBE0F901F9018951F920F92A4
:1023C0000FB60F9211242F933F938F939F93AF9348
:1023D000BF9380913A0490913B04A0913C04B0914A
:1023E0003D043091390423E0230F2D3720F401966A
:1023F000A11DB11D05C026E8230F0296A11DB11D28
:102400002093390480933A0490933B04A0933C04B6
:10241000B0933D0480913E0490913F04A09140040C
:10242000B09141040196A11DB11D80933E0490938B
:102430003F04A0934004B0934104BF91AF919F919A
:102440008F913F912F910F900FBE0F901F90189575
:102450002FB7F89460913A0470913B0480913C044A
:1024600090913D042FBF08953FB7F89480913E04AA
:1024700090913F04A0914004B091410426B5A89BDF
:1024800005C02F3F19F00196A11DB11D3FBF662762
:10249000782F892F9A2F620F711D811D911D42E0A7
:1024A000660F771F881F991F4A95D1F70895CF921D
:1024B000DF92EF92FF92CF93DF936B017C010E943A
:1024C0003412EB01C114D104E104F10489F00E943B
:1024D00063110E9434126C1B7D0B683E734090F3B5
:1024E00081E0C81AD108E108F108C851DC4FEACFF1
:1024F000DF91CF91FF90EF90DF90CF9008958230E1
:10250000910538F0880F991F880F991F059701973B
:10251000F1F70895789484B5826084BD84B58160B4
:1025200084BD85B5826085BD85B5816085BDEEE6DB
:10253000F0E0808181608083E1E8F0E010828081BA
:1025400082608083808181608083E0E8F0E0808128
:1025500081608083E1EBF0E0808184608083E0EB48
:10256000F0E0808181608083EAE7F0E08081846030
:10257000808380818260808380818160808380818C
:10258000806880831092C10008958E3008F08E50CC
:1025900087702091090190E4299F90011124822BDA
:1025A00080937C0080917A00806480937A0080918F
:1025B0007A0086FDFCCF809178002091790090E030
:1025C000922B0895833081F028F4813099F0823085
:1025D000A1F008958730A9F08830B9F08430D1F4A3
:1025E000809180008F7D03C0809180008F778093E1
:1025F0008000089584B58F7702C084B58F7D84BD37
:1026000008958091B0008F7703C08091B0008F7DD6
:102610008093B0000895CF93DF9390E0FC01E657DC
:10262000FF4F2491FC01E256FF4F8491882349F12A
:1026300090E0880F991FFC01EA53FF4FA591B491D8
:1026400084549F4FFC01C591D4919FB7611108C07C
:10265000F8948C91209582238C93888182230AC0E0
:10266000623051F4F8948C91322F309583238C93FF
:102670008881822B888304C0F8948C91822B8C9360
:102680009FBFDF91CF9108950F931F93CF93DF9357
:102690001F92CDB7DEB7282F30E0F901EA58FF4F7F
:1026A0008491F901E657FF4F1491F901E256FF4F6B
:1026B00004910023C9F0882321F069830E94E2126B
:1026C0006981E02FF0E0EE0FFF1FE454FF4FA5916A
:1026D000B4919FB7F8948C91611103C01095812338
:1026E00001C0812B8C939FBF0F90DF91CF911F91E1
:1026F0000F910895CF93DF93282F30E0F901EA5826
:10270000FF4F8491F901E657FF4FD491F901E2564A
:10271000FF4FC491CC2391F081110E94E212EC2F63
:10272000F0E0EE0FFF1FEE54FF4FA591B4912C91F6
:102730002D2381E090E021F480E002C080E090E071
:10274000DF91CF9108950F931F93762F90E0FC01B6
:10275000E657FF4F6491FC01E256FF4FE49171117F
:10276000762FF0E0EE0FFF1FEE54FF4F859194910E
:1027700089019A013F70472F0E94960061157105EB
:102780008105910531F06F5F7F4F8F4F9F4F9F7095
:1027900003C060E070E0CB011F910F910895FC0130
:1027A000818D228D90E0805C9F4F821B91098F73F9
:1027B00099270895FC01918D828D981731F0828DB3
:1027C000E80FF11D858D90E008958FEF9FEF08953C
:1027D000FC01918D828D981761F0828DDF01A80F29
:1027E000B11D5D968C91928D9F5F9F73928F90E04B
:1027F00008958FEF9FEF08958CE695E1892B49F0BE
:1028000080E090E0892B29F00E946C1581110C94D6
:1028100000000895FC01848DDF01A80FB11DA35AAB
:10282000BF4F2C91848D90E001968F739927848FF0
:10283000A689B7892C93A089B1898C9180648C93E7
:10284000938D848D981306C00288F389E02D8081D2
:102850008F7D80830895CF93DF93EC01888D88234B
:10286000C9F0EA89FB89808185FD05C0A889B989FD
:102870008C9186FD0FC00FB607FCF5CF808185FFD8
:10288000F2CFA889B9898C9185FFEDCFCE010E9446
:102890000A14E7CFDF91CF910895CF92DF92FF9294
:1028A0000F931F93CF93DF931F92CDB7DEB76C01C9
:1028B00081E0D60158968C9358975B969C915B97D4
:1028C0005C968C915C97981307C05096ED91FC91A3
:1028D0005197808185FD2EC0F601038D10E00F5FBA
:1028E0001F4F0F731127F02EF601848DF81211C0BF
:1028F0000FB607FCF9CFD6015096ED91FC91519798
:10290000808185FFF1CFC60169830E940A14698125
:10291000EBCF838DE80FF11DE35AFF4F6083D601A3
:102920005B960C935B975296ED91FC915397808147
:1029300080620CC0D6015696ED91FC91579760834A
:102940005096ED91FC91519780818064808381E065
:1029500090E00F90DF91CF911F910F91FF90DF904A
:10296000CF900895BF92CF92DF92EF92FF92CF93D4
:10297000DF93EC016A017B01B22EE889F98982E0DC
:102980008083411581EE580761057105A1F060E073
:1029900079E08DE390E0A70196010E94471821504D
:1029A00031094109510956954795379527952115C4
:1029B00080E1380798F0E889F989108260E874E8C6
:1029C0008EE190E0A70196010E944718215031093D
:1029D000410951095695479537952795EC85FD8511
:1029E0003083EE85FF852083188EEC89FD89B082C7
:1029F000EA89FB89808180618083EA89FB89808103
:102A000088608083EA89FB89808180688083EA8985
:102A1000FB8980818F7D8083DF91CF91FF90EF9044
:102A2000DF90CF90BF9008951F920F920FB60F9234
:102A300011242F938F939F93EF93FF93E091520470
:102A4000F09153048081E0915804F091590482FD83
:102A500012C0908180915B048F5F8F7320915C0422
:102A6000821751F0E0915B04F0E0EE5BFB4F958F35
:102A700080935B0401C08081FF91EF919F918F91C2
:102A80002F910F900FBE0F901F9018951F920F92CD
:102A90000FB60F9211242F933F934F935F936F9331
:102AA0007F938F939F93AF93BF93EF93FF9382E4B2
:102AB00094E00E940A14FF91EF91BF91AF919F9112
:102AC0008F917F916F915F914F913F912F910F90D7
:102AD0000FBE0F901F90189582E494E00E94CF13D0
:102AE00021E0892B09F420E0822F089510924504FB
:102AF0001092440488EE93E0A0E0B0E08093460496
:102B000090934704A0934804B09349048AED92E05F
:102B1000909343048093420485EC90E090934F049B
:102B200080934E0484EC90E0909351048093500481
:102B300080EC90E0909353048093520481EC90E0F9
:102B4000909355048093540482EC90E09093570442
:102B50008093560486EC90E0909359048093580437
:102B600010925B0410925C0410925D0410925E045B
:102B7000089508950E948A120E94B9150E942401A6
:102B8000CCEFD3E10E946C012097E1F30E94FC138B
:102B9000F9CFCF92DF92EF92FF920F931F93CF93D3
:102BA000DF936C017A01EB01E60EF71E00E010E006
:102BB000CE15DF0561F06991D601ED91FC91019090
:102BC000F081E02DC6010995080F191FF1CFC8014A
:102BD000DF91CF911F910F91FF90EF90DF90CF90F9
:102BE00008956115710581F0DB010D900020E9F772
:102BF000AD0141505109461B570BDC01ED91FC9191
:102C00000280F381E02D099480E090E0089566EE63
:102C100072E00C94F1150F931F93CF93DF93EC01A7
:102C20000E94F1158C01CE010E940716800F911FA2
:102C3000DF91CF911F910F9108955058BB27AA277C
:102C40000ED070C161D130F066D120F031F49F3FD9
:102C500011F41EF456C10EF4E095E7FB4CC1E92FC8
:102C600072D180F3BA17620773078407950718F0CB
:102C700071F49EF58AC10EF4E0950B2EBA2FA02DAB
:102C80000B01B90190010C01CA01A0011124FF2719
:102C9000591B99F0593F50F4503E68F11A16F04014
:102CA000A22F232F342F4427585FF3CF4695379513
:102CB0002795A795F0405395C9F77EF41F16BA0BD8
:102CC000620B730B840BBAF09150A1F0FF0FBB1F86
:102CD000661F771F881FC2F70EC0BA0F621F731FCF
:102CE000841F48F4879577956795B795F7959E3F2C
:102CF00008F0B3CF9395880F08F09927EE0F9795BA
:102D000087950895D4D008F481E008950CD00AC1C5
:102D100002D140F0F9D030F021F45F3F19F0EBC060
:102D2000511134C1EEC00FD198F39923C9F3552343
:102D3000B1F3951B550BBB27AA27621773078407AE
:102D400038F09F5F5F4F220F331F441FAA1FA9F364
:102D500033D00E2E3AF0E0E830D091505040E69556
:102D6000001CCAF729D0FE2F27D0660F771F881FB7
:102D7000BB1F261737074807AB07B0E809F0BB0BA6
:102D8000802DBF01FF2793585F4F2AF09E3F5105CA
:102D900068F0B1C0FBC05F3FECF3983EDCF3869572
:102DA00077956795B795F7959F5FC9F7880F911D40
:102DB0009695879597F90895E1E0660F771F881F2C
:102DC000BB1F621773078407BA0720F0621B730BDF
:102DD000840BBA0BEE1F88F7E0950895BCD088F0FD
:102DE0009F5790F0B92F9927B751A0F0D1F0660FF7
:102DF000771F881F991F1AF0BA95C9F712C0B13012
:102E000081F0C3D0B1E00895C0C0672F782F882724
:102E1000B85F39F0B93FCCF3869577956795B39550
:102E2000D9F73EF490958095709561957F4F8F4FBF
:102E30009F4F0895E89409C097FB3EF490958095C4
:102E4000709561957F4F8F4F9F4F9923A9F0F92F70
:102E500096E9BB279395F695879577956795B795EE
:102E6000F111F8CFFAF4BB0F11F460FF1BC06F5FD4
:102E70007F4F8F4F9F4F16C0882311F096E911C0E6
:102E8000772321F09EE8872F762F05C0662371F007
:102E900096E8862F70E060E02AF09A95660F771F1B
:102EA000881FDAF7880F9695879597F90895990FF7
:102EB0000008550FAA0BE0E8FEEF16161706E80704
:102EC000F907C0F012161306E407F50798F0621B25
:102ED000730B840B950B39F40A2661F0232B242BFA
:102EE000252B21F408950A2609F4A140A6958FEF19
:102EF000811D811D089597F99F6780E870E060E06B
:102F000008959FEF80EC089500240A941616170682
:102F100018060906089500240A94121613061406CA
:102F200005060895092E0394000C11F4882352F02D
:102F3000BB0F40F4BF2B11F460FF04C06F5F7F4FE5
:102F40008F4F9F4F089557FD9058440F551F59F0CC
:102F50005F3F71F04795880F97FB991F61F09F3F86
:102F600079F087950895121613061406551FF2CFAF
:102F70004695F1DF08C0161617061806991FF1CFFF
:102F800086957105610508940895E894BB27662726
:102F90007727CB0197F908958ADF08F48FEF08951A
:102FA0000BD0C0CFB1DF28F0B6DF18F0952309F0C1
:102FB000A2CFA7CF1124EACFC6DFA0F3959FD1F30C
:102FC000950F50E0551F629FF001729FBB27F00DD7
:102FD000B11D639FAA27F00DB11DAA1F649F66272C
:102FE000B00DA11D661F829F2227B00DA11D621F7B
:102FF000739FB00DA11D621F839FA00D611D221F35
:10300000749F3327A00D611D231F849F600D211D18
:10301000822F762F6A2F11249F5750408AF0E1F0BB
:1030200088234AF0EE0FFF1FBB1F661F771F881F04
:1030300091505040A9F79E3F510570F05CCFA6CF4C
:103040005F3FECF3983EDCF3869577956795B795EF
:10305000F795E7959F5FC1F7FE2B880F911D969519
:10306000879597F90895AA1BBB1B51E107C0AA1FBA
:10307000BB1FA617B70710F0A61BB70B881F991F19
:103080005A95A9F780959095BC01CD010895A1E2CC
:103090001A2EAA1BBB1BFD010DC0AA1FBB1FEE1FD2
:1030A000FF1FA217B307E407F50720F0A21BB30B1D
:1030B000E40BF50B661F771F881F991F1A9469F799
:1030C00060957095809590959B01AC01BD01CF01F5
:1030D0000895EE0FFF1F0590F491E02D0994A29F33
:1030E000B001B39FC001A39F700D811D1124911DDC
:1030F000B29F700D811D1124911D08950E946F18BB
:10310000A59F900DB49F900DA49F800D911D11243B
:103110000895CF93DF938230910510F482E090E020
:10312000E091E104F091E20420E030E0A0E0B0E0C2
:10313000309739F14081518148175907B8F0481745
:10314000590771F482819381109729F013969C930B
:103150008E9312972CC09093E2048093E10427C0D1
:103160002115310531F04217530718F0A901DB0191
:1031700001C0EF019A01BD01DF010280F381E02D62
:10318000D7CF21153105F9F0281B390B2430310533
:1031900080F48A819B816115710521F0FB01938385
:1031A000828304C09093E2048093E104FE0132968E
:1031B00044C0FE01E20FF31F819391932250310925
:1031C000398328833AC02091DF043091E004232B17
:1031D00041F420910201309103013093E0042093E7
:1031E000DF0420910001309101012115310541F4E6
:1031F0002DB73EB74091040150910501241B350BBA
:10320000E091DF04F091E004E217F307A0F42E1B35
:103210003F0B2817390778F0AC014E5F5F4F24173A
:10322000350748F04E0F5F1F5093E0044093DF04D2
:103230008193919302C0E0E0F0E0CF01DF91CF9164
:103240000895CF93DF93009709F487C0FC0132976C
:1032500013821282C091E104D091E204209781F49C
:1032600020813181280F391F8091DF049091E00483
:103270008217930779F5F093E004E093DF046DC0C3
:10328000DE0120E030E0AE17BF0750F412964D91FA
:103290005C9113979D014115510509F1DA01F3CFB6
:1032A000B383A28340815181840F951F8A179B07A6
:1032B00071F48D919C911197840F951F02969183C3
:1032C000808312968D919C9113979383828321150D
:1032D000310529F4F093E204E093E1043EC0D90102
:1032E0001396FC93EE9312974D915D91A40FB51F29
:1032F000EA17FB0779F480819181840F951F02966C
:10330000D90111969C938E938281938113969C93FD
:103310008E931297E0E0F0E08A819B81009719F08C
:10332000FE01EC01F9CFCE01029628813981820F8E
:10333000931F2091DF043091E0042817390769F4C6
:10334000309729F41092E2041092E10402C0138233
:103350001282D093E004C093DF04DF91CF910895EF
:10336000DC0101C06D9341505040E0F7089510E03A
:10337000C6EDD0E004C0FE010E946B182296C83D45
:08338000D107C9F7F894FFCF53
:103388000000E304800004C80001010005040302F2
:103398000706FFFFFFFFFFFFFFFF4655445A5A5A33
:1033A8005A5A3AFF37FF69FF67FF82FF82FF14FF0F
:1033B80014FF3AFF82FF69FF14FF82FF37FF14FFF3
:1033C80067FF3AFF37FF14FF14FF82FF82FF69FF90
:1033D80067FF5043206D6F64653A205175616443FF
:1033E8007261776C6572312E3000030405063AFF6E
:1033F80037FF69FF67FF82FF82FF14FF14FF3AFF60
:1034080037FF69FF67FF82FF82FF14FF14FF82FF07
:1034180082FF69FF67FF3AFF37FF14FF14FF82FF3F
:1034280082FF69FF67FF3AFF37FF14FF14FF3AFF77
:1034380037FF69FF67FF3AFF82FF69FF14FF3AFF12
:1034480037FF69FF67FF3AFF82FF69FF14FFFF5AE2
:10345800FF6EFF50FF3C50FF37FF69FF50FFFF3CF6
:10346800FF50FF6EFF5A3AFF4BFF50FF67FFFF5AAE
:10347800FF6EFF50FF3C3AFF4BFF50FF67FFFF3CDA
:10348800FF50FF6EFF5A50FF37FF69FF50FFFF5A8A
:10349800FF50FF50FF5A50FF37FF69FF50FFFF3CB6
:1034A800FF6EFF6EFF3C3AFF4BFF50FF67FFFF5A6E
:1034B800FF50FF50FF5A3AFF4BFF50FF67FFFF3C9A
:1034C800FF6EFF6EFF3C50FF37FF69FF50FFFF5A4A
:1034D800FF50FF6EFF3C3AFF4BFF50FF67FFFF3C7A
:1034E800FF6EFF50FF5A50FF37FF69FF50FFFF5A2A
:1034F800FF50FF6EFF3C50FF37FF69FF50FFFF3C56
:10350800FF6EFF50FF5A3AFF4BFF50FF67FFFFFF68
:10351800FFFFFFFFFFFF4655445A5A5A5A5A3A3C92
:103528003750696E675A505A4B6E5050503C82550E
:10353800825A145A145A7370007100000072750090
:1035480000007600777400000000920A650A3A0AC3
:10355800420A550A640A000000004D14C915CF1329
:10356800E813DA132B140D0A006E616E00696E669B
:08357800006F7666002E0000D2
:00000001FF
