:100000000C946C000C94F9100C9426110C94940030
:100010000C9494000C9494000C9494000C94940010
:100020000C9494000C9494000C9494000C94940000
:100030000C9494000C9494000C9494000C949400F0
:100040000C9453110C9494000C946C140C949E1406
:100050000C9494000C9494000C9494000C949400D0
:100060000C94620B0C949400830687068306870623
:10007000830687068A0600000008000201000003CC
:100080000407000000000000000001020408102026
:10009000408001020408102001020408102004041A
:1000A0000404040404040202020202020303030320
:1000B00003030000000023002600290000000000C8
:1000C000250028002B0000000000240027002A0043
:1000D0002D06800ACE143B0611241FBECFEFD8E0B8
:1000E000DEBFCDBF12E0A0E0B1E0E6E3F2E302C084
:1000F00005900D92A23FB107D9F724E0A2EFB2E03C
:1001000001C01D92AA3AB207E1F710E0C6EDD0E0B7
:1001100004C02297FE010E94DC17C03DD107C9F739
:100120000E9412150C940E190C940000CF92DF92CD
:10013000EF92FF920F931F93E82FF92F05C0015004
:1001400011092109310961F1908196239417B9F3BE
:1001500005C0015011092109310911F1908196233F
:100160009413F7CFC12CD12CE12CF12C0AC08FEFC6
:10017000C81AD80AE80AF80A0C151D052E053F050D
:1001800079F080818623841791F36C2D7D2D8E2D3F
:100190009F2D1F910F91FF90EF90DF90CF900895CA
:1001A00060E070E080E090E01F910F91FF90EF9091
:1001B000DF90CF9008950E9493090E94CD0585E0BD
:1001C0000E94BF0484E690E00E94AC0526E040E077
:1001D00052EC61E070E089E094E00E940A1461E56D
:1001E00071E089E094E00C946315AF92CF92DF92B6
:1001F000EF92FF920F931F93CF93DF93CDB7DEB7AC
:1002000027970FB6F894DEBF0FBECDBF80E090E019
:100210000E9426080E946F09F82E603629F0653684
:1002200021F460E1670F01C0672F8091F302681726
:1002300009F4E8C06093F302623509F4D1C0E8F52F
:10024000693109F49BC0E8F46C3009F4A6C050F49D
:10025000683009F4B1C0693009F48BC0673009F027
:10026000C9C082C0653109F4CDC020F46D3009F4F5
:10027000C9C0C0C0663109F465C0683109F492C0D4
:10028000B9C0643409F484C078F4603409F467C0F8
:1002900020F46C3109F495C0ADC0623409F49BC000
:1002A000633409F470C0A6C0673409F446C008F48A
:1002B000A9C06A3409F499C09DC0633709F459C0D4
:1002C00008F5633609F491C078F46E3509F46FC00F
:1002D00020F46A3509F47AC08DC0613609F462C031
:1002E000623609F478C086C0603709F44CC020F447
:1002F000643609F475C07EC0613789F1623709F44C
:1003000047C078C0603809F448C048F4653709F43C
:100310003FC050F1663791F16737A9F16BC0633880
:1003200009F454C020F4613809F446C063C064384D
:1003300009F447C06638D9F15DC088EB9BE00E94A4
:10034000AC0560C082E390E00E94AC0505E010E0DF
:1003500085E00E94EB0401501109D1F753C083E0FE
:100360000E94BF0461E04AC086E00E94BF0466E0CC
:1003700045C086E00E94BF0465E040C081E00E9465
:10038000BF0464E03BC082E00E94BF0462E036C06C
:1003900082E00E94BF0463E031C086E00E94BF0497
:1003A00067E02CC086E00E94BF0468E027C086E0BA
:1003B0000E94BF0469E022C086E00E94BF046AE098
:1003C0001DC086E00E94BF046BE018C086E00E945A
:1003D000BF046CE013C086E00E94BF046DE00EC055
:1003E00086E00E94BF046EE009C086E00E94BF0460
:1003F0006FE004C085E00E94BF0460E088EC90E0FC
:100400000E942C0486E00E94D212182F90910601BF
:100410008091F202911729F1111123C0811111C0AD
:1004200081E00E94BF04AA24A394CC24C394EE24A8
:10043000E39401E021E041E061E081E00E945403A7
:1004400008C085E00E94BF0460E088EC90E00E9454
:100450002C0481E09091F202911180E08093F202ED
:1004600007C0882329F00E94BA03882309F445C0F5
:10047000109306010E94C10389E08F1548F46F2D87
:1004800070E088EA91E60E94A417CB010E9427043D
:100490000E9470056B017C0120E030E040E051E4F7
:1004A0000E94DA1587FF14C020E030E040E251E4FA
:1004B000C701B6010E942D176B017C010E944616F0
:1004C000CB010E94AC05C701B6010E944B1604C0C7
:1004D00062E370E080E090E027960FB6F894DEBF0C
:1004E0000FBECDBFDF91CF911F910F91FF90EF9085
:1004F000DF90CF90AF900C94CC1185E00E94BF04A8
:100500001092F202B5CF6F927F928F929F92AF922C
:10051000BF92CF92DF92EF92FF920F931F93CF93F0
:10052000DF93CDB7DEB728970FB6F894DEBF0FBEC6
:10053000CDBF962E7C018E010F5F1F4F6E0129E00B
:10054000C20ED11C702E612E88E0882E9EE6A92E48
:10055000B12CD7018D917D01E9E0F1E0A72DB62DF9
:10056000982D01900D929A95E1F7D801ED918D01AA
:10057000B8EC8B9FC0011124805A9F40B5010E94A6
:1005800090179B0128533F4F2139F1E03F0768F452
:1005900040E050E06E2F82E193E00E949E0C64E107
:1005A00070E080E090E00E94CC110C151D0589F6EA
:1005B000909211038091010490910204A091030490
:1005C000B091040480930D0390930E03A0930F0346
:1005D000B093100328960FB6F894DEBF0FBECDBFC0
:1005E000DF91CF911F910F91FF90EF90DF90CF900F
:1005F000BF90AF909F908F907F906F900895909351
:100600000C0380930B030C948302CF92DF92EF9242
:10061000FF92CF93DF936B017C01C0E0D0E080912B
:10062000F6029091F702C817D90798F4A70196012E
:10063000BE0184EF92E00E94731084EF92E00E946A
:10064000560F6AE070E080E090E00E94CC112196A5
:10065000E6CFDF91CF91FF90EF90DF90CF9008959C
:10066000CF93C0E020E030E040E050E06C2F82E12A
:1006700093E00E949E0CCF5FC830A1F71092110347
:100680008091010490910204A0910304B0910404AC
:1006900080930D0390930E03A0930F03B093100368
:1006A00010920A03CF910895AF92CF92EF920F93D9
:1006B000CF93DF93CDB7DEB728970FB6F894DEBFA0
:1006C0000FBECDBF98E0899FD0011124A857BD4F20
:1006D0008C91898388E0689FF0011124E857FD4FD1
:1006E00081818A8398E0499FD0011124A857BD4F8A
:1006F00012968C918B8388E0289FF0011124E85793
:10070000FD4F83818C8398E0099FD0011124A85765
:10071000BD4F14968C918D8388E0E89EF0011124E2
:10072000E857FD4F85818E8398E0C99ED001112442
:10073000A857BD4F16968C918F8388E0A89EF00134
:100740001124E857FD4F8781888767E0CE01019625
:100750000E94FF0280E180930A0328960FB6F89466
:10076000DEBF0FBECDBFDF91CF910F91EF90CF9045
:10077000AF90089581E090911103911101C080E044
:1007800008958091010490910204A0910304B09116
:10079000040440910D0350910E0360910F0370917A
:1007A0001003841B950BA60BB70B2091110322306D
:1007B00029F0273019F0211113C0089580322FEB52
:1007C000920722E0A207B10518F00E94300306C08C
:1007D00090FF04C061E08DE00C949C1260E0FBCFC0
:1007E000409107015091080160E070E0841795077F
:1007F000A607B70758F1243091F028F4213021F1F1
:10080000233031F00895253091F02630B9F0089565
:1008100080910B0390910C0364E0089606C08091D0
:100820000B0390910C0365E040960C948302809139
:100830000B0390910C0366E04896F7CF63E080913C
:100840000B0390910C03F1CF0C9430030895909317
:100850000801809307010895CF93DF93CDB7DEB7EA
:1008600028970FB6F894DEBF0FBECDBF9093080156
:100870008093070180910A03861709F477C060937B
:100880000A03611110C088E0E9E1F1E0DE01119690
:1008900001900D928A95E1F780911103823008F45E
:1008A00065C061E04DC0613021F463E088E692E00C
:1008B0005BC0643021F463E088E492E055C06230AC
:1008C00021F463E088E292E04FC0633019F488E0DD
:1008D00092E04AC0653021F463E088EE91E044C0C4
:1008E000663021F463E088EC91E03EC0673021F48B
:1008F00088E0E1E2F1E01DC0683021F488E0E9E23F
:10090000F1E017C0693021F488E0E1E3F1E011C0C3
:100910006A3021F488E0E9E3F1E00BC06B3021F4A8
:1009200088E0E1E4F1E005C06C3069F488E0E9E4D6
:10093000F1E0DE01119601900D928A95E1F762E0F7
:10094000CE01019611C06D3021F463E088EA91E098
:100950000BC06E3021F463E088E891E005C06F3091
:1009600029F463E088E691E00E94FF0228960FB622
:10097000F894DEBF0FBECDBFDF91CF9108958330D5
:10098000B1F028F4813049F0823061F0089585306B
:10099000C1F090F08630C9F0089560E070E08FEF0C
:1009A00090E017C060E07FEF80E090E012C06FEF52
:1009B00070E080E090E00DC060E070E880E890E0DA
:1009C00008C060E870E0CB0104C060E870E880E037
:1009D00090E00C9405035F926F927F928F929F92AA
:1009E000AF92BF92CF92DF92EF92FF920F931F933D
:1009F000CF93DF93B12C00E010E0C82ED12CE12C76
:100A0000F12CA12CC0E0D0E0502E602E6094772411
:100A10007A947B0C3EEF832E8B0C4DEF942E9B0C27
:100A20008091F6029091F702C817D907C0F58C2F74
:100A3000962D9C1B953580F4800F282F220F280FB0
:100A40002E5F822F90E0A0E0B0E0AC013327222798
:100A5000892D8A19282B1AC0850D9A3A58F4282F07
:100A6000220F280F2F5F30E040E050E0882D8A19D8
:100A7000382B0CC0982F990F980F272D2A19422F29
:100A800050E060E070E033272227392BBE0184EF6D
:100A900092E00E947310219683E0A80EC1CF84EFEC
:100AA00092E00E94560FC701B6010E94CC110F5F61
:100AB0001F4F2DEFB20E011581E0180709F0A1CFED
:100AC000DF91CF911F910F91FF90EF90DF90CF902A
:100AD000BF90AF909F908F907F906F905F900895A0
:100AE000CF92DF92EF92FF9260E08FE00E949C1223
:100AF00082E090E00E94F41161E08FE00E949C127D
:100B00008AE090E00E94F41160E08FE00E949C1265
:100B100020E432E44FE050E061E08EE00E94FB12FE
:100B20000E9477166B017C0120E030E0A9010E9451
:100B3000291718164CF426E933E44BE85CE3C701A7
:100B4000B6010E942D1703C060E070E0CB01FF905A
:100B5000EF90DF90CF9008950F931F93CF93DF9383
:100B60008C01C0E0D0E0C017D10794F461E088E0C8
:100B70000E949C1280E991E00E94F41160E088E0FC
:100B80000E949C1280E991E00E94F4112196EBCF23
:100B9000DF91CF911F910F910895CF93DF93CDB740
:100BA000DEB728970FB6F894DEBF0FBECDBF61E069
:100BB00081E10E94631261E081E10E949C1260E089
:100BC0008EE00E94631261E08FE00E94631261E098
:100BD00088E00E94631262E083E00E94631262E098
:100BE00084E00E94631262E085E00E94631262E08A
:100BF00086E00E94631284EF92E00E94D30E84EF9D
:100C000092E00E94560F60E082E193E00E94300E75
:100C100040E050E068E472E482E193E00E948D0DD0
:100C20000E94D81060E081E10E949C1288E0E9E116
:100C3000F1E0DE01119601900D928A95E1F761E0F5
:100C4000CE0101960E94FF0228960FB6F894DEBFEF
:100C50000FBECDBFDF91CF91089582E193E00E9456
:100C6000960C22E530E040E150E068E070E084EF6F
:100C700092E00C94511084EF92E00C94C00ECF924D
:100C8000DF92EF92FF920F931F93CF93DF9382E057
:100C90000E94D212C82F0E94A91100913203109114
:100CA000330320913403309135036B017C01C01A6A
:100CB000D10AE20AF30AC114D10441E0E406F104C6
:100CC00060F400913203109133032091340330918A
:100CD00035039B01201B310B02C02FEF3FEF6093C8
:100CE0003203709333038093340390933503409120
:100CF0003B0350E04730510508F0B9C0FA01EC5C05
:100D0000FF4F0C94DA17C13009F0B1C094C1C11182
:100D1000AEC08DC1C9018F5A91098F359140E8F459
:100D200080913A0380FD15C080913603909137037E
:100D3000A0913803B0913903880F991FAA1FBB1FD8
:100D400081608093360390933703A0933803B09368
:100D5000390380913A038F5F1CC02D5032402F35EC
:100D60003140F0F48091360390913703A09138031D
:100D7000B0913903880F991FAA1FBB1F80933603B8
:100D800090933703A0933803B093390380913A03CB
:100D90008E5F80933A0380913A038E3120F44DC1E7
:100DA000C11149C177C010923B03809136039091E5
:100DB0003703A0913803B091390320911903492FCB
:100DC000429546954770211104C043704093190322
:100DD00034C120911903437050E030E042175307AB
:100DE00009F02BC127E0E3E2F3E0EF0119922A9525
:100DF000E9F7282F2770205A20932703282F2695BC
:100E00002695269530E020513109F4E0220F331F5A
:100E1000FA95E1F73093240320932303892F8F71F0
:100E200090E04097A4E0880F991FAA95E1F790936E
:100E30002603809325030E949D1160932E037093D7
:100E40002F03809330039093310382E090E09093DE
:100E50001B0380931A0361E08DE0DF91CF911F9116
:100E60000F91FF90EF90DF90CF900C949C128091A7
:100E70003B03823069F128F4882361F0813061F00E
:100E8000DCC0843009F49AC008F445C0853009F408
:100E9000D2C0D3C081E0CCC0C90187559A41833903
:100EA000914110F482E0C4C02B5633402F353140BD
:100EB00008F0C1C086E080933B0310923603109285
:100EC0003703109238031092390310923A03B5C0D9
:100ED000C9018B529D408B3C984060F410923603C0
:100EE00010923703109238031092390310923A038C
:100EF00083E09EC0255936402736344008F097C01D
:100F00000E949D1160932E0370932F0380933003F2
:100F1000909331038CC0255A31402B31314008F079
:100F20008AC080913A03803208F446C0809136032B
:100F300090913703A0913803B09139034091360363
:100F4000509137036091380370913903892F9A2F9C
:100F5000AB2FBB2784279527A627B7279927BB2721
:100F60008F3F9105AF4FB10509F065C087E0E3E21F
:100F7000F3E0DF011D928A95E9F7809136039091A5
:100F80003703A0913803B0913903A09327030E943F
:100F90009D1160932E0370932F03809330039093E1
:100FA000310381E090E090931B0380931A0361E08A
:100FB0008DE00E949C123FC084E03AC083E08093A1
:100FC0003B038091360390913703A0913803B09191
:100FD0003903B695A7959795879580933603909397
:100FE0003703A0933803B093390380913A038F5F9E
:100FF00080933A03C901805F94408D34934090F40C
:101000008091360390913703A0913803B091390352
:10101000B0688093360390933703A0933803B0935E
:1010200039030BC0255A31402B31314030F085E077
:1010300080933B0302C010923B03DF91CF911F913D
:101040000F91FF90EF90DF90CF9008950F931F9333
:10105000CF93DF93EC0180912E0390912F03A09109
:101060003003B0913103892B8A2B8B2B09F4D6C026
:101070000E949D1100912E0310912F0320913003A7
:1010800030913103601B710B820B930B1091200385
:101090006C3271408105910508F099C080911A0366
:1010A00090911B03029709F078C02091230330919F
:1010B00024038091250390912603B90137FF04C0D2
:1010C00066277727621B730BAC0197FF04C0442788
:1010D0005527481B590B640F751F6832710508F4BA
:1010E0004EC0D90137FD1196B595A795E1E0A81737
:1010F000B9070CF0E0E0AC0197FF02C04F5F5F4F13
:1011000055954795241735070CF4EE5FAC0197FF12
:1011100002C04F5F5F4F55954795519541955109D5
:10112000241735070CF4EC5F44275527481B590B4F
:10113000A417B5070CF4E85FF0E0E055FD4FE0813F
:10114000E0932803E33791F020F4E13761F49C0148
:101150000DC0E43721F0E63731F49A0107C031952C
:101160002195310903C09B01369527952F3F310505
:1011700019F010F02FEF30E02093290304C01092F3
:10118000280310922903CD2B41F08091270380364C
:1011900021F4809128038093270311110EC08091C0
:1011A0002703882351F081E090E090931B03809304
:1011B0001A0361E08DE00E949C1287E0E3E2F3E015
:1011C000ACE1B3E001900D928A95E1F77BC0112369
:1011D00009F478C087E0ECE1F3E0DF011D928A9525
:1011E000E9F781E090E090931B0380931A0360E09D
:1011F0008DE00E949C1210922E0310922F031092E9
:101200003003109231030E949D1160932A03709362
:101210002B0380932C0390932D0354C080912A03B9
:1012200090912B03A0912C03B0912D03892B8A2B35
:101230008B2B51F40E949D1160932A0370932B0312
:1012400080932C0390932D030E949D1100912A03FB
:1012500010912B0320912C0330912D03601B710BF7
:10126000820B930B20912703222369F06D32B1E0AA
:101270007B078105910538F027E0E3E2F3E0DF0129
:101280001D922A95E9F7DC01CB0117E0B695A795E9
:10129000979587951A95D1F70097A105B10591F01B
:1012A0008F709927AA27BB270097A105B10511F4D4
:1012B00061E005C00197A105B10521F460E08DE072
:1012C0000E949C1280911A0390911B0310921B03A1
:1012D00010921A03DF91CF911F910F910895CF9330
:1012E000DF93CDB7DEB727970FB6F894DEBF0FBEFA
:1012F000CDBF87E0ECE1F3E0DE01119601900D92A5
:101300008A95E1F729813A814B815C816D817E81EB
:101310008F8190E027960FB6F894DEBF0FBECDBF49
:10132000DF91CF91089561E08DE00E94631283E028
:1013300084BD85BD60E082E00E94631241E050E020
:101340006FE376E080E00E94D91010923B0387E0C3
:10135000E3E2F3E0DF011D928A95E9F708958091B9
:101360006C0390E020916D03821B910908952091F8
:101370006D0380916C03281750F4E22FF0E0E259DE
:10138000FC4F808190E02F5F20936D0308958FEFD5
:101390009FEF0895E0916D0380916C03E81730F49E
:1013A000F0E0E259FC4F808190E008958FEF9FEFCD
:1013B00008950895CF92DF92EF92FF920F931F93BB
:1013C000CF93DF937C01CB018A0120914803222334
:1013D00089F0EB016B01C40ED51ECC15DD0569F05B
:1013E0006991D701ED91FC910190F081E02DC70149
:1013F0000995F3CF642F0E94390BC801DF91CF917B
:101400001F910F91FF90EF90DF90CF900895CF93B1
:10141000DF931F92CDB7DEB7698320914803222363
:10142000D1F020914903203240F021E030E0FC016E
:101430003383228380E090E015C080914A03E82F37
:10144000F0E0E55BFC4F998190838F5F80934A03C6
:101450008093490305C061E0CE0101960E94390BDB
:1014600081E090E00F90DF91CF910895FC0113820D
:10147000128248EE53E060E070E044835583668357
:10148000778384EC92E091838083089510926D03BA
:1014900010926C0310924A03109249030C94840A30
:1014A000862F413208F040E26EE673E00E94A20A05
:1014B00010926D0380936C03089521E00C94500A00
:1014C00081E08093480360936B0310924A0310926B
:1014D000490308950F93062F21E0409149036BE4DF
:1014E00073E080916B030E94E60A10924A03109207
:1014F0004903109248030F91089561E00C946A0A21
:101500008CE393E00C94360A1092FB0381E0809305
:10151000F9031092F80361E082E10E949C1261E0FD
:1015200083E10E949C12E9EBF0E080818E7F808352
:1015300080818D7F808388E48093B80085E48093E8
:10154000BC000895413208F03FC09091FB03911117
:10155000FCCF91E09093FB032093F9032FEF2093AE
:101560008E031092D303240F2093D2039093FA0397
:101570009091FA03880F892B8093FA038091F803E6
:10158000813041F41092F8038091FA038093BB00FC
:1015900085EC01C085EE8093BC008091FB03813017
:1015A000E1F38091D303841710F44091D30324ED29
:1015B00033E0FB01D9018A2F821B841718F48D9127
:1015C0008193F9CF842F089580E008950F934132DD
:1015D00008F046C09091FB039111FCCF92E09093EC
:1015E000FB030093F9039FEF90938E031092D303B4
:1015F0004093D203FB0164ED73E0DB019A2F961B4D
:10160000941718F491919D93F9CF1092FA03909149
:10161000FA03880F892B8093FA038091F8038130B5
:1016200041F41092F8038091FA038093BB0085EC9B
:1016300001C085EE8093BC00222321F08091FB0342
:101640008230E1F380918E038F3F61F080918E03B1
:10165000803251F080918E03803341F483E007C0E3
:1016600081E005C080E003C082E001C084E00F910A
:101670000895613298F42091FB03243089F460933B
:10168000B003FC0182EB93E0DC012A2F281B261714
:1016900018F421912D93F9CF80E0089581E0089509
:1016A00082E0089585ED8093BC008091BC0084FDAC
:1016B000FCCF1092FB03089585EC8093BC00109240
:1016C000FB0308951F920F920FB60F9211242F93D0
:1016D0003F934F935F936F937F938F939F93AF93BA
:1016E000BF93EF93FF938091B900887F803609F410
:1016F0009CC068F5883209F45BC090F4803109F42D
:1017000054C038F4882309F4F5C0883009F44DC07A
:10171000F5C0883109F44CC0803209F45DC0EEC0D8
:10172000803409F468C048F4803309F455C0883324
:1017300009F0E4C080938E03A8C0803509F44FC03F
:10174000883509F45DC0883409F0D8C0D5C088391F
:1017500009F4C6C0A8F4883709F467C038F488369D
:1017600009F463C0803709F460C0C8C0883809F440
:10177000B7C0803909F45FC0803809F0BFC05BC0D2
:10178000803B09F485C038F4803A09F466C0883A91
:1017900009F47EC0B3C0803C09F4A6C0883C09F4BB
:1017A000A3C0883B09F489C0A9C08091FA0310C086
:1017B0009091D3038091D203981770F5E091D303F1
:1017C00081E08E0F8093D303F0E0EC52FC4F8081D8
:1017D0008093BB0085EC85C080938E038DC0E09123
:1017E000D30381E08E0F8093D3038091BB00F0E0A0
:1017F000EC52FC4F80839091D3038091D2036DC053
:10180000E091D30381E08E0F8093D3038091BB00DE
:10181000F0E0EC52FC4F80838091F90381116CC0A1
:1018200081E08093F80384EA60C083E08093FB0347
:1018300010928F03CFCF80918F03803208F050C079
:10184000E0918F0381E08E0F80938F038091BB0026
:10185000F0E0E057FC4F8083BDCF80918F03803252
:1018600030F4E0918F03F0E0E057FC4F10820E94CB
:10187000520B60918F0370E0E091F403F091F50357
:1018800080E993E0099510928F030E945C0B36C0AB
:1018900084E08093FB031092B1031092B003E091B7
:1018A000F603F091F70309958091B003811105C00B
:1018B00081E08093B0031092B203E091B10381E024
:1018C0008E0F8093B103F0E0EE54FC4F8081809343
:1018D000BB009091B1038091B003981708F47ACFC0
:1018E00085E88093BC000AC085EC8093BC00109210
:1018F000FB0304C010928E030E94520BFF91EF91E4
:10190000BF91AF919F918F917F916F915F914F9117
:101910003F912F910F900FBE0F901F901895DC01F3
:10192000ED91FC910190F081E02D099420E4FC01FF
:1019300020832CE333E0328321830895CF92DF921A
:10194000FF920F931F93CF93DF9300D0CDB7DEB7F5
:101950006C01F62E052F132FDC016C9111968D91E1
:101960009C9112972A8349830E94600AF601818123
:101970009281DC01ED91FC91B4E0FB9EB001112459
:101980006A5F7F4F0190F081E02D09954981642FB6
:10199000702FF601818192810E948F0C602F70E080
:1019A000D60111968D919C9112970E948F0C2A81DD
:1019B000622F712FF601818192810E948F0C612F1D
:1019C00070E0D60111968D919C9112970E948F0C18
:1019D000F601818192810F900F90DF91CF911F913D
:1019E0000F91FF90DF90CF900C947D0A1F93CF93BF
:1019F000DF93EC01162F688189819A810E94600A29
:101A000089819A81DC01ED91FC910190F081E02DBA
:101A1000612F099589819A810E947D0A41E0688140
:101A200089819A810E945D0A89819A81DC01ED9108
:101A3000FC910680F781E02D0995DF91CF911F91F0
:101A40000895EF92FF921F93CF93DF931F92CDB72C
:101A5000DEB77C01162FDC016C9111968D919C9163
:101A6000129749830E94600AF70181819281DC010B
:101A7000ED91FC910190F081E02D612F0995F70126
:101A800081819281DC01ED91FC910190F081E02D4A
:101A90004981642F0995F701818192810F90DF912F
:101AA000CF911F91FF90EF900C947D0A40E860E089
:101AB0000E94210D6AE070E080E090E00C94CC116F
:101AC0000F931F93CF93DF93EC01062F60E00E94EA
:101AD000F60C182F1F76412F406160E0CE010E9466
:101AE000210D1065412F60E0CE010E94210D402F95
:101AF0006EEFCE010E94210D65E070E080E090E085
:101B00000E94CC11412F4F74406A60E0CE01DF91FA
:101B1000CF911F910F910C94210D8F929F92AF92B4
:101B2000BF92CF92DF92EF92FF921F93CF93DF93FA
:101B3000EC016A017B0120E030E040E85FE3C7018F
:101B4000B6010E94DA1587FD12C020E030EC4AE5AC
:101B500055E4C701B6010E942917181674F4C12C68
:101B600020ECD22E2AE5E22E25E4F22E06C0C12C6E
:101B7000D12C30E8E32E3FE3F32E6B817C818D8105
:101B80009E810E9477164B015C0120E030E040E826
:101B900055E4C701B6010E942D179B01AC01C50198
:101BA000B4010E94DE1520E030E040E05FE30E94D7
:101BB000761520E030E040E85FE30E9475156B0188
:101BC0007C0120E030E040E450E40E94DA1587FD1B
:101BD00011C020E030E04FE753E4C701B6010E9496
:101BE0002917181664F4C12CD12C8FE7E82E83E452
:101BF000F82E05C0C12CD12C90E4E92EFE2C60E01B
:101C0000CE010E94F60C182F482F4F76406160E0FD
:101C1000CE010E94210DC701B6010E944B16462F2E
:101C20006EEFCE010E94210D412F60E0CE010E9497
:101C3000210D65E070E080E090E00E94CC11412F22
:101C4000406A60E0CE01DF91CF911F91FF90EF904D
:101C5000DF90CF90BF90AF909F908F900C94210D0C
:101C6000AF92BF92CF92DF92EF92FF921F93CF93EA
:101C7000DF931F92CDB7DEB75C01FC0181819281B9
:101C800069830E94460AC5010E94560D6981662338
:101C900021F0C5010E94600D5FC0F5016381748170
:101CA000858196810E94771620E030E04AE75AE469
:101CB0000E94DE1520E030E040E05FE30E947615F0
:101CC00020E030E040E85FE30E9475156B017C0185
:101CD00020E030E040E450E40E94DA1587FD11C0B6
:101CE00020E030E04FE753E4C701B6010E94291716
:101CF000181664F4C12CD12C4FE7E42E43E4F42EE3
:101D000005C0C12CD12C50E4E52EFE2C60E0C501AD
:101D10000E94F60C182F482F4F76406160E0C501F5
:101D20000E94210DC701B6010E944B16462F6EEF8F
:101D3000C5010E94210D412F60E0C5010E94210DC7
:101D400065E070E080E090E00E94CC11412F406A95
:101D500060E0C5010E94210D80E498E7ADE7B1E0A5
:101D6000F50183839483A583B6830F90DF91CF9190
:101D70001F91FF90EF90DF90CF90BF90AF900895AC
:101D8000CF93DF93EC0189859A850E9478188E8124
:101D90009F8197FD05C060E0DF91CF910C946312A5
:101DA000DF91CF910895CF93DF93EC018E819F81D6
:101DB00097FD07C061E00E94631260E08E810E947F
:101DC0009C1281E08983DF91CF910895EF92FF9279
:101DD0000F931F93CF93DF93EC017B0189859A8545
:101DE0000E9478189E858B85981303C083E090E04D
:101DF00002C084E090E08E9D80018F9D100D9E9D1D
:101E0000100D11241D830C83C8010E94E0179A87CE
:101E10008987009741F0A80160E070E00E940719EF
:101E2000FB82EA8204C01D821C821B821A82DF911F
:101E3000CF911F910F91FF90EF900895FC0121E049
:101E400096858385981320E0CB0136E0969587959B
:101E50003A95E1F7482F43704687CB0154E09695B9
:101E600087955A95E1F7382F33703387CB019695D4
:101E700087959695879583708487862F837085874D
:101E800081E06F3F710511F008F080E0808381856B
:101E90009285892B51F091E0431390E0921729F03D
:101EA00062817381CF010C94E60E0895CF92DF9288
:101EB000EF92FF920F931F93CF93DF93CDB7DEB7CF
:101EC00029970FB6F894DEBF0FBECDBF8C01DC01A1
:101ED00019968D919C911A97892B09F49FC00E94A5
:101EE000A911F801C784D088E188F2886C197D09AE
:101EF0008E099F096C3271408105910580F3F89439
:101F0000D80114968D919C9115979A83898319967F
:101F10000D90BC91A02D7D01EFEFEE1AFE0A8C9181
:101F20008987D8019C9153960D90BC91A02DF80102
:101F30008589992309F42EC09C91982B98879C91B0
:101F4000809589238F838F818E8388E08D83588548
:101F50006F8149853D812E8189819A81F7015C934A
:101F600047FD252F3A952C93262F39F0441F00C0AA
:101F700000006C93000000C0F2CF38E041916C93F8
:101F80000000019761F7F801B48BA38B49873D836B
:101F90002E8338C09C91982B98879C91809589239B
:101FA0008F838F818C8388E08B8358856F814985EF
:101FB0003B812C8189819A81F7015C9347FD252F14
:101FC00000C000C02C9300C000C000C000C000C012
:101FD0006C930000262F3A9541F0441F000000C08A
:101FE00000C000C000C000C0E8CF38E0419100C090
:101FF0006C9300C0019709F7F801B48BA38B498754
:102000003B832C839A83898378940E94A911D801F9
:102010001F966D937D938D939C93529729960FB63F
:10202000F894DEBF0FBECDBFDF91CF911F910F910E
:10203000FF90EF90DF90CF9008950F931F93CF9371
:10204000DF93EC018B018981882339F08E819F8198
:1020500097FD03C060E00E9463121F830E83898195
:10206000882341F061E0802F0E94631260E0802F9E
:102070000E949C12F801E256FF4FE491F0E0EE0F4F
:10208000FF1FE454FF4F859194919C8B8B8BF8013B
:10209000E657FF4F04910D8BDF91CF911F910F9168
:1020A0000895EF92FF920F931F93CF93DF93EC016C
:1020B0008B017A01198218861A8619861F86188A5A
:1020C000198A1A8AB9010E941E0FB801CE010E9416
:1020D000E60EB701CE01DF91CF911F910F91FF90D6
:1020E000EF900C941D10CF92DF92EF92FF920F931E
:1020F0001F93CF93DF93FC01828193816817790747
:1021000008F04DC0CA01AA27BB27182FC32ED42E12
:10211000E52EFF24DC2DC22F0085002361F0809F77
:10212000C0011124192FC09E60011124DD2D209FB4
:10213000C0011124C92FF6848385A185B285F812C8
:1021400008C0CB01880F991F860F971F8A0F9B1F0E
:1021500017C0CB01880F991F880F991F8A0F9B1FEB
:10216000452F552766277727DC01AF0DB11D0023CA
:1021700029F0409F90011124232F01C0242F2C937C
:102180002385DC01A20FB11D1C932485DC01A20F65
:10219000B11DDC932585FC01E20FF11DC083DF91A9
:1021A000CF911F910F91FF90EF90DF90CF90089506
:1021B00008958230E8F4E82FF0E0EE0FFF1FE450BE
:1021C000FC4F71836083813041F0809169008C7F86
:1021D000842B80936900E89A089580916900440FE8
:1021E000551F440F551F837F842B80936900E99A04
:1021F00008951F920F920FB60F9211242F933F93C1
:102200004F935F936F937F938F939F93AF93BF93FE
:10221000EF93FF938091FC039091FD03892B29F0AC
:10222000E091FC03F091FD030995FF91EF91BF91BF
:10223000AF919F918F917F916F915F914F913F915E
:102240002F910F900FBE0F901F9018951F920F9215
:102250000FB60F9211242F933F934F935F936F9379
:102260007F938F939F93AF93BF93EF93FF9380914F
:10227000FE039091FF03892B29F0E091FE03F0917A
:10228000FF030995FF91EF91BF91AF919F918F91BE
:102290007F916F915F914F913F912F910F900FBE62
:1022A0000F901F9018951F920F920FB60F92112446
:1022B0002F933F938F939F93AF93BF93809101048C
:1022C00090910204A0910304B091040430910004A1
:1022D00023E0230F2D3720F40196A11DB11D05C069
:1022E00026E8230F0296A11DB11D209300048093C0
:1022F000010490930204A0930304B093040480911A
:10230000050490910604A0910704B0910804019679
:10231000A11DB11D8093050490930604A0930704AA
:10232000B0930804BF91AF919F918F913F912F91EE
:102330000F900FBE0F901F9018952FB7F8946091D3
:1023400001047091020480910304909104042FBF52
:1023500008953FB7F8948091050490910604A091E8
:102360000704B091080426B5A89B05C02F3F19F0BB
:102370000196A11DB11D3FBF6627782F892F9A2F87
:10238000620F711D811D911D42E0660F771F881F2E
:10239000991F4A95D1F70895CF92DF92EF92FF925D
:1023A000CF93DF936B017C010E94A911EB01C11453
:1023B000D104E104F10489F00E94D8100E94A9110F
:1023C0006C1B7D0B683E734090F381E0C81AD10806
:1023D000E108F108C851DC4FEACFDF91CF91FF90BF
:1023E000EF90DF90CF9008958230910538F0880FFC
:1023F000991F880F991F05970197F1F70895789411
:1024000084B5826084BD84B5816084BD85B58260F9
:1024100085BD85B5816085BDEEE6F0E08081816097
:102420008083E1E8F0E01082808182608083808197
:1024300081608083E0E8F0E0808181608083E1EB6F
:10244000F0E0808184608083E0EBF0E08081816057
:102450008083EAE7F0E0808184608083808182600D
:1024600080838081816080838081806880831092F6
:10247000C1000895833081F028F4813099F08230D2
:10248000A1F008958730A9F08830B9F08430D1F4F4
:10249000809180008F7D03C0809180008F77809332
:1024A0008000089584B58F7702C084B58F7D84BD88
:1024B00008958091B0008F7703C08091B0008F7D28
:1024C0008093B0000895CF93DF9390E0FC01E6572E
:1024D000FF4F2491FC01E256FF4F8491882349F17C
:1024E00090E0880F991FFC01EA53FF4FA591B4912A
:1024F00084549F4FFC01C591D4919FB7611108C0CE
:10250000F8948C91209582238C93888182230AC031
:10251000623051F4F8948C91322F309583238C9350
:102520008881822B888304C0F8948C91822B8C93B1
:102530009FBFDF91CF9108950F931F93CF93DF93A8
:102540001F92CDB7DEB7282F30E0F901EA58FF4FD0
:102550008491F901E657FF4F1491F901E256FF4FBC
:1025600004910023C9F0882321F069830E943A1264
:102570006981E02FF0E0EE0FFF1FE454FF4FA591BB
:10258000B4919FB7F8948C91611103C01095812389
:1025900001C0812B8C939FBF0F90DF91CF911F9132
:1025A0000F910895CF93DF93282F30E0F901EA5877
:1025B000FF4F8491F901E657FF4FD491F901E2569C
:1025C000FF4FC491CC2391F081110E943A12EC2F5D
:1025D000F0E0EE0FFF1FEE54FF4FA591B4912C9148
:1025E0002D2381E090E021F480E002C080E090E0C3
:1025F000DF91CF9108950F931F93762F90E0FC0108
:10260000E657FF4F6491FC01E256FF4FE4917111D0
:10261000762FF0E0EE0FFF1FEE54FF4F859194915F
:1026200089019A013F70472F0E949600611571053C
:102630008105910531F06F5F7F4F8F4F9F4F9F70E6
:1026400003C060E070E0CB011F910F910895FC0181
:10265000818D228D90E0805C9F4F821B91098F734A
:1026600099270895FC01918D828D981731F0828D04
:10267000E80FF11D858D90E008958FEF9FEF08958D
:10268000FC01918D828D981761F0828DDF01A80F7A
:10269000B11D5D968C91928D9F5F9F73928F90E09C
:1026A00008958FEF9FEF089584EC94E1892B49F012
:1026B00080E090E0892B29F00E94C41481110C94D1
:1026C00000000895FC01848DDF01A80FB11DA35AFD
:1026D000BF4F2C91848D90E001968F739927848F42
:1026E000A689B7892C93A089B1898C9180648C9339
:1026F000938D848D981306C00288F389E02D808124
:102700008F7D80830895CF93DF93EC01888D88239C
:10271000C9F0EA89FB89808185FD05C0A889B9894E
:102720008C9186FD0FC00FB607FCF5CF808185FF29
:10273000F2CFA889B9898C9185FFEDCFCE010E9497
:102740006213E7CFDF91CF910895CF92DF92FF928E
:102750000F931F93CF93DF931F92CDB7DEB76C011A
:1027600081E0D60158968C9358975B969C915B9725
:102770005C968C915C97981307C05096ED91FC91F4
:102780005197808185FD2EC0F601038D10E00F5F0B
:102790001F4F0F731127F02EF601848DF81211C010
:1027A0000FB607FCF9CFD6015096ED91FC915197E9
:1027B000808185FFF1CFC60169830E946213698120
:1027C000EBCF838DE80FF11DE35AFF4F6083D601F5
:1027D0005B960C935B975296ED91FC915397808199
:1027E00080620CC0D6015696ED91FC91579760839C
:1027F0005096ED91FC91519780818064808381E0B7
:1028000090E00F90DF91CF911F910F91FF90DF909B
:10281000CF900895BF92CF92DF92EF92FF92CF9325
:10282000DF93EC016A017B01B22EE889F98982E02D
:102830008083411581EE580761057105A1F060E0C4
:1028400079E08DE390E0A70196010E94B81721502E
:102850003109410951095695479537952795211515
:1028600080E1380798F0E889F989108260E874E817
:102870008EE190E0A70196010E94B817215031091E
:10288000410951095695479537952795EC85FD8562
:102890003083EE85FF852083188EEC89FD89B08218
:1028A000EA89FB89808180618083EA89FB89808154
:1028B00088608083EA89FB89808180688083EA89D7
:1028C000FB8980818F7D8083DF91CF91FF90EF9096
:1028D000DF90CF90BF9008951F920F920FB60F9286
:1028E00011242F938F939F93EF93FF93E0911904FB
:1028F000F0911A048081E0911F04F091200482FD80
:1029000012C09081809122048F5F8F7320912304E5
:10291000821751F0E0912204F0E0E75FFB4F958FC2
:102920008093220401C08081FF91EF919F918F914C
:102930002F910F900FBE0F901F9018951F920F921E
:102940000FB60F9211242F933F934F935F936F9382
:102950007F938F939F93AF93BF93EF93FF9389E000
:1029600094E00E946213FF91EF91BF91AF919F910C
:102970008F917F916F915F914F913F912F910F9028
:102980000FBE0F901F90189589E094E00E942713C6
:1029900021E0892B09F420E0822F089510920C0485
:1029A00010920B0488EE93E0A0E0B0E080930D0459
:1029B00090930E04A0930F04B093100484ED92E062
:1029C00090930A048093090485EC90E09093160498
:1029D0008093150484EC90E090931804809317047E
:1029E00080EC90E090931A048093190481EC90E0BD
:1029F00090931C0480931B0482EC90E090931E043F
:102A000080931D0486EC90E09093200480931F0433
:102A10001092220410922304109224041092250490
:102A2000089508950E94FF110E9411150E94DB0075
:102A3000C4E5D3E10E94F5002097E1F30E9454130E
:102A4000F9CFCF92DF92EF92FF920F931F93CF9324
:102A5000DF936C017A01EB01E60EF71E00E010E057
:102A6000CE15DF0561F06991D601ED91FC910190E1
:102A7000F081E02DC6010995080F191FF1CFC8019B
:102A8000DF91CF911F910F91FF90EF90DF90CF904A
:102A900008956115710581F0DB010D900020E9F7C3
:102AA000AD0141505109461B570BDC01ED91FC91E2
:102AB0000280F381E02D099480E090E0089560EEBB
:102AC00072E00C9449150F931F93CF93DF93EC01A1
:102AD0000E9449158C01CE010E945F15800F911F45
:102AE000DF91CF911F910F9108955058BB27AA27CE
:102AF0000ED075C166D130F06BD120F031F49F3F1C
:102B000011F41EF45BC10EF4E095E7FB51C1E92F0F
:102B100077D180F3BA17620773078407950718F017
:102B200071F49EF58FC10EF4E0950B2EBA2FA02DF7
:102B30000B01B90190010C01CA01A0011124FF276A
:102B4000591B99F0593F50F4503E68F11A16F04065
:102B5000A22F232F342F4427585FF3CF4695379564
:102B60002795A795F0405395C9F77EF41F16BA0B29
:102B7000620B730B840BBAF09150A1F0FF0FBB1FD7
:102B8000661F771F881FC2F70EC0BA0F621F731F20
:102B9000841F48F4879577956795B795F7959E3F7D
:102BA00008F0B3CF9395880F08F09927EE0F97950B
:102BB00087950895D9D008F481E008950CD00FC10D
:102BC00007D140F0FED030F021F45F3F19F0F0C0A3
:102BD000511139C1F3C014D198F39923C9F3552386
:102BE000B1F3951B550BBB27AA2762177307840700
:102BF00038F09F5F5F4F220F331F441FAA1FA9F3B6
:102C000033D00E2E3AF0E0E830D091505040E695A7
:102C1000001CCAF729D0FE2F27D0660F771F881F08
:102C2000BB1F261737074807AB07B0E809F0BB0BF7
:102C3000802DBF01FF2793585F4F2AF09E3F51051B
:102C400068F0B6C000C15F3FECF3983EDCF38695B8
:102C500077956795B795F7959F5FC9F7880F911D91
:102C60009695879597F90895E1E0660F771F881F7D
:102C7000BB1F621773078407BA0720F0621B730B30
:102C8000840BBA0BEE1F88F7E095089504D0689482
:102C9000B111D9C00895BCD088F09F5790F0B92FDA
:102CA0009927B751A0F0D1F0660F771F881F991FA1
:102CB0001AF0BA95C9F712C0B13081F0C3D0B1E0B3
:102CC0000895C0C0672F782F8827B85F39F0B93FC3
:102CD000CCF3869577956795B395D9F73EF49095A3
:102CE0008095709561957F4F8F4F9F4F0895E89421
:102CF00009C097FB3EF490958095709561957F4F44
:102D00008F4F9F4F9923A9F0F92F96E9BB279395F1
:102D1000F695879577956795B795F111F8CFFAF401
:102D2000BB0F11F460FF1BC06F5F7F4F8F4F9F4F32
:102D300016C0882311F096E911C0772321F09EE890
:102D4000872F762F05C0662371F096E8862F70E0F6
:102D500060E02AF09A95660F771F881FDAF7880FD0
:102D60009695879597F90895990F0008550FAA0B26
:102D7000E0E8FEEF16161706E807F907C0F012168E
:102D80001306E407F50798F0621B730B840B950B91
:102D900039F40A2661F0232B242B252B21F40895E6
:102DA0000A2609F4A140A6958FEF811D811D089583
:102DB00097F99F6780E870E060E008959FEF80ECEE
:102DC000089500240A941616170618060906089591
:102DD00000240A9412161306140605060895092EF7
:102DE0000394000C11F4882352F0BB0F40F4BF2B66
:102DF00011F460FF04C06F5F7F4F8F4F9F4F0895A6
:102E000057FD9058440F551F59F05F3F71F047959B
:102E1000880F97FB991F61F09F3F79F08795089580
:102E2000121613061406551FF2CF4695F1DF08C09F
:102E3000161617061806991FF1CF869571056105BC
:102E400008940895E894BB2766277727CB0197F964
:102E500008958ADF08F48FEF08950BD0C0CFB1DF5B
:102E600028F0B6DF18F0952309F0A2CFA7CF1124E0
:102E7000EACFC6DFA0F3959FD1F3950F50E0551F21
:102E8000629FF001729FBB27F00DB11D639FAA27BF
:102E9000F00DB11DAA1F649F6627B00DA11D661F0E
:102EA000829F2227B00DA11D621F739FB00DA11D2F
:102EB000621F839FA00D611D221F749F3327A00DE9
:102EC000611D231F849F600D211D822F762F6A2F85
:102ED00011249F5750408AF0E1F088234AF0EE0F0A
:102EE000FF1FBB1F661F771F881F91505040A9F717
:102EF0009E3F510570F05CCFA6CF5F3FECF3983E4C
:102F0000DCF3869577956795B795F795E7959F5F7D
:102F1000C1F7FE2B880F911D9695879597F9089517
:102F2000AA1BBB1B51E107C0AA1FBB1FA617B707EF
:102F300010F0A61BB70B881F991F5A95A9F780950B
:102F40009095BC01CD01089597FB072E16F40094CF
:102F500007D077FD09D00E94901707FC05D03EF4FA
:102F6000909581959F4F0895709561957F4F089535
:102F7000A1E21A2EAA1BBB1BFD010DC0AA1FBB1F7D
:102F8000EE1FFF1FA217B307E407F50720F0A21BEF
:102F9000B30BE40BF50B661F771F881F991F1A945C
:102FA00069F760957095809590959B01AC01BD0186
:102FB000CF010895EE0FFF1F0590F491E02D0994C5
:102FC000CF93DF938230910510F482E090E0E0919E
:102FD000A804F091A90420E030E0A0E0B0E0309730
:102FE00039F14081518148175907B8F048175907FE
:102FF00071F482819381109729F013969C938E939C
:1030000012972CC09093A9048093A80427C021157F
:10301000310531F04217530718F0A901DB0101C057
:10302000EF019A01BD01DF010280F381E02DD7CFCE
:1030300021153105F9F0281B390B2430310580F4B6
:103040008A819B816115710521F0FB019383828345
:1030500004C09093A9048093A804FE01329644C052
:10306000FE01E20FF31F81939193225031093983BE
:1030700028833AC02091A6043091A704232B41F461
:1030800020910201309103013093A7042093A604FC
:1030900020910001309101012115310541F42DB736
:1030A0003EB74091040150910501241B350BE0917E
:1030B000A604F091A704E217F307A0F42E1B3F0B20
:1030C0002817390778F0AC014E5F5F4F241735079A
:1030D00048F04E0F5F1F5093A7044093A6048193BE
:1030E000919302C0E0E0F0E0CF01DF91CF9108952D
:1030F000CF93DF93009709F487C0FC0132971382C6
:103100001282C091A804D091A904209781F4208153
:103110003181280F391F8091A6049091A70482174E
:10312000930779F5F093A704E093A6046DC0DE0140
:1031300020E030E0AE17BF0750F412964D915C913D
:1031400013979D014115510509F1DA01F3CFB383BE
:10315000A28340815181840F951F8A179B0771F4C8
:103160008D919C911197840F951F02969183808376
:1031700012968D919C91139793838283211531052B
:1031800029F4F093A904E093A8043EC0D901139652
:10319000FC93EE9312974D915D91A40FB51FEA1722
:1031A000FB0779F480819181840F951F0296D901E4
:1031B00011969C938E938281938113969C938E9308
:1031C0001297E0E0F0E08A819B81009719F0FE0100
:1031D000EC01F9CFCE01029628813981820F931F2D
:1031E0002091A6043091A7042817390769F4309775
:1031F00029F41092A9041092A80402C0138212822A
:10320000D093A704C093A604DF91CF910895DC0169
:1032100001C06D9341505040E0F7089510E0C6EDB5
:10322000D0E004C0FE010E94DC172296C83DD10701
:06323000C9F7F894FFCF7E
:103236000000AA04800001C800010005040302077B
:1032460006FFFFFFFFFFFFFFFF4655445A5A5A5A33
:103256005A3AFF37FF69FF67FF82FF82FF14FF14A8
:10326600FF3AFF82FF69FF14FF82FF37FF14FF67F3
:10327600FF3AFF37FF14FF14FF82FF82FF69FF67E3
:10328600FF4E6F726D616C3A2051756164437261D5
:10329600776C6572312E30003AFF37FF69FF67FFA2
:1032A60082FF82FF14FF14FF3AFF37FF69FF67FFB3
:1032B60082FF82FF14FF14FF82FF82FF69FF67FF10
:1032C6003AFF37FF14FF14FF82FF82FF69FF67FF93
:1032D6003AFF37FF14FF14FF3AFF37FF69FF67FF16
:1032E6003AFF82FF69FF14FF3AFF37FF69FF67FF66
:1032F6003AFF82FF69FF14FFFF5AFF6EFF50FF3C43
:1033060050FF37FF69FF50FFFF3CFF50FF6EFF5A2B
:103316003AFF4BFF50FF67FFFF5AFF6EFF50FF3C1F
:103326003AFF4BFF50FF67FFFF3CFF50FF6EFF5A0F
:1033360050FF37FF69FF50FFFF5AFF50FF50FF5AFB
:1033460050FF37FF69FF50FFFF3CFF6EFF6EFF3CEB
:103356003AFF4BFF50FF67FFFF5AFF50FF50FF5ADF
:103366003AFF4BFF50FF67FFFF3CFF6EFF6EFF3CCF
:1033760050FF37FF69FF50FFFF5AFF50FF6EFF3CBB
:103386003AFF4BFF50FF67FFFF3CFF6EFF50FF5AAF
:1033960050FF37FF69FF50FFFF5AFF50FF6EFF3C9B
:1033A60050FF37FF69FF50FFFF3CFF6EFF50FF5A8B
:1033B6003AFF4BFF50FF67FFFFFFFFFFFFFFFFFFD7
:1033C6004655445A5A5A5A5A3A3C3750696E675AC1
:1033D600505A4B6E5050503C8255825A145A145AC9
:1033E600737000710000007275000000760077743B
:1033F60000000000070ADA09AF09B709CA09D909A6
:1034060000000000A5132115271340133213831360
:103416000D0A006E616E00696E66006F7666002E9C
:023426000000A4
:00000001FF
