:100000000C946A000C9469090C9442090C949200B7
:100010000C9492000C9492000C9492000C94920018
:100020000C9492000C9492000C9492000C94920008
:100030000C9492000C9492000C9492000C949200F8
:100040000C94B40B0C9492000C94B6090C94900987
:100050000C9492000C9492000C9492000C949200D8
:100060000C94E8090C949200AA07AE07AA07AE0701
:10007000AA07AE07B10700000000240027002A00ED
:1000800000000000230026002900000000080002F4
:10009000010000030407000000000000000001024E
:1000A0000408102040800102040810200102040806
:1000B000102000000000250028002B000404040488
:1000C0000404040402020202020203030303030302
:1000D0008611431211241FBECFEFD8E0DEBFCDBF83
:1000E00012E0A0E0B1E0E4EEFBE202C005900D9268
:1000F000A43CB107D9F724E0A4ECB2E001C01D9202
:10010000A837B207E1F710E0C9E6D0E004C02197B4
:10011000FE010E94B914C836D107C9F70E94430CEA
:100120000C94E5150C940000282F30915E033132B9
:1001300008F04AC080913B038111FCCF90911904D3
:1001400042E040933B0320933A032FEF209339037F
:100150001092380330933703EEE3F3E0A7E1B3E006
:1001600020E0321721F041914D932F5FFACF10928A
:10017000160320911603990F922B909316039091DA
:100180001503913061F4109215039091160390932A
:10019000BB009091BC0093FDF8CF95EC01C095EEAB
:1001A0009093BC0090913B039230E1F3909139031E
:1001B0009F3F79F080913903803241F0809139037B
:1001C000803331F084E005C081E003C082E001C0EB
:1001D00083E010923D0310925E0310923C03089559
:1001E000DC01ED91FC910190F081E02D09948330C8
:1001F00081F028F4813099F08230A1F008958730A1
:10020000A9F08830B9F08430D1F4809180008F7DDE
:1002100003C0809180008F7780938000089584B51B
:100220008F7702C084B58F7D84BD08958091B00022
:100230008F7703C08091B0008F7D8093B0000895C8
:100240008F929F92AF92BF92CF92DF92EF92FF92E6
:10025000CF93DF934B01AA24BB24F82DC52ED62EB5
:10026000E72EFF24AC2DE42F20910404222361F01B
:10027000829E40011124F92D2C9D60011124AD2D89
:10028000249FE0011124ED2F30910A04B09107045E
:10029000E0900504F09006043B1308C09C01220F77
:1002A000331F820F931F8E0D9F1D19C0880F991F3A
:1002B000880F991F8E0D9F1D472F5527662777277B
:1002C000EC01C30FD11D222349F030E0249F7001BF
:1002D000259FF00C349FF00C11244F2D4883209162
:1002E0000704EC01C20FD11DF88320910804EC0132
:1002F000C20FD11DA88320910904DC01A20FB11DFA
:10030000EC93DF91CF91FF90EF90DF90CF90BF9073
:10031000AF909F908F9008950F931F93CF93DF938B
:100320008B01C2E1D4E0988121E020933C039093BB
:10033000190410923D0310925E03A981BA8124E052
:10034000829FC0011124BC016A5F7F4FED91FC9137
:1003500011970190F081E02DCD01099560E070E0EA
:1003600089819A810E94F00060E070E089819A8121
:100370000E94F000B80189819A810E94F000612FEB
:1003800070E089819A810E94F00081E0DF91CF9135
:100390001F910F910C9494001F93CF93DF93162F0E
:1003A000C2E1D4E0988121E020933C0390931904AA
:1003B00010923D0310925E03A981BA81ED91FC91E8
:1003C00011970190F081E02D682FCD010995898169
:1003D0009A81DC01ED91FC910190F081E02D612F7B
:1003E000099581E0DF91CF911F910C949400CF93F8
:1003F000C0E060E070E08C2F0E948C01CF5FC830BD
:10040000C1F71092F2028091EE029091EF02A0915A
:10041000F002B091F1028093EA029093EB02A09374
:10042000EC02B093ED021092E902CF910895CF93C0
:10043000DF93CDB7DEB728970FB6F894DEBF0FBEB7
:10044000CDBF28EC30E03093060120930501909158
:10045000E902981709F477C08093E902811110C06E
:1004600088E0E5E2F1E0DE01119601900D928A95B7
:10047000E1F78091F202823008F465C061E04DC07E
:10048000813021F463E08DE592E05BC0843021F49B
:1004900063E08DE392E055C0823021F463E08DE1AA
:1004A00092E04FC0833021F463E08DEF91E049C0CA
:1004B000853021F463E08DED91E043C0863021F476
:1004C00063E08DEB91E03DC0873021F488E0EDE200
:1004D000F1E01CC0883019F4E5E3F1E017C0893081
:1004E00021F488E0EDE3F1E011C08A3021F488E0E6
:1004F000E5E4F1E00BC08B3021F488E0EDE4F1E0BD
:1005000005C08C3069F488E0E5E5F1E0DE01119684
:1005100001900D928A95E1F762E0CE01019611C03B
:100520008D3021F463E08DE991E00BC08E3021F431
:1005300063E08DE791E005C08F3029F463E08DE53D
:1005400091E00E94AE0B28960FB6F894DEBF0FBE66
:10055000CDBFDF91CF910895CF93DF93282F30E067
:10056000F901E657FF4F8491F901E256FF4FD4910C
:10057000F901E454FF4FC491CC2391F081110E9402
:10058000F700EC2FF0E0EE0FFF1FE058FF4FA591B2
:10059000B491EC91ED2381E090E021F480E002C081
:1005A00080E090E0DF91CF9108951F93CF93DF9388
:1005B000282F30E0F901E657FF4F8491F901E25608
:1005C000FF4FD491F901E454FF4FC491CC23C1F003
:1005D000162F81110E94F700EC2FF0E0EE0FFF1FA5
:1005E000EE54FF4FA591B4919FB7F894111104C038
:1005F0008C91D095D82302C0EC91DE2BDC939FBF69
:10060000DF91CF911F910895CF93DF9390E0FC018C
:10061000E256FF4F2491FC01E454FF4F849188235C
:1006200061F190E0880F991FFC01EA58FF4FC591D6
:10063000D491FC01EE54FF4FA591B491611109C012
:100640009FB7F8948881209582238883EC912E238C
:100650000BC0623061F49FB7F8948881322F3095D7
:1006600083238883EC912E2B2C939FBF06C08FB7DA
:10067000F894E8812E2B28838FBFDF91CF910895C6
:100680003FB7F8948091E5029091E602A091E702CD
:10069000B091E80226B5A89B05C02F3F19F001963E
:1006A000A11DB11D3FBFBA2FA92F982F8827820FF8
:1006B000911DA11DB11DBC01CD0142E0660F771F48
:1006C000881F991F4A95D1F708950F931F93CF93D1
:1006D000DF93CDB7DEB729970FB6F894DEBF0FBE14
:1006E000CDBF8091050490910604892B09F4A2C026
:1006F0000E94400300910B0410910C0420910D0402
:1007000030910E04DC01CB01801B910BA20BB30BCB
:100710008C329140A105B10558F3F8948091000402
:10072000909101049A838983E0910504F091060475
:10073000DF011196808189879091FC03E0910F047D
:10074000F091100480911104992309F42EC0908136
:10075000982B98879081809589238F838F818C83B4
:1007600088E08B8358856F8149853B812C81898105
:100770009A81508347FD252F3A952083262F39F003
:10078000441F00C000006083000000C0F2CF38E0CA
:100790004D9160830000019761F7F0931004E0939E
:1007A0000F0449873B832C8338C09081982B98870E
:1007B0009081809589238F838F818E8388E08D83BC
:1007C00058856F8149853D812E8189819A81508329
:1007D00047FD252F00C000C0208300C000C000C01E
:1007E00000C000C060830000262F3A9541F0441FEE
:1007F000000000C000C000C000C000C0E8CF38E06A
:100800004D9100C0608300C0019709F7F093100478
:10081000E0930F0449873D832E839A8389837894DC
:100820000E94400360930B0470930C0480930D04AA
:1008300090930E0429960FB6F894DEBF0FBECDBF7D
:10084000DF91CF911F910F9108958F929F92AF9258
:10085000BF92CF92DF92EF92FF926B017C010E94D8
:1008600040034B015C01C114D104E104F104F1F037
:100870000E944003DC01CB0188199909AA09BB0930
:10088000883E9340A105B10570F321E0C21AD1085A
:10089000E108F10888EE880E83E0981EA11CB11CC7
:1008A000C114D104E104F10419F7DDCFFF90EF90FA
:1008B000DF90CF90BF90AF909F908F900895CF9290
:1008C000DF92EF92FF92CF93DF936B017C01C0E048
:1008D000D0E08091FE039091FF03C817D90778F408
:1008E000B701A601CE010E9420010E9465036AE0C3
:1008F00070E080E090E00E9425042196EACFDF912D
:10090000CF91FF90EF90DF90CF9008958F929F92BC
:10091000AF92BF92CF92DF92EF92FF92CF936B0193
:100920007C0120E030E040E85FE30E94C01287FDD8
:1009300012C020E030EC4AE555E4C701B6010E9440
:100940001F14181674F4C12C30ECD32E3AE5E32EA4
:1009500035E4F32E06C0C12CD12C20E8E22E2FE383
:10096000F22E6091150470911604809117049091F5
:1009700018040E946D134B015C0120E030E040E858
:1009800055E4C701B6010E9424149B01AC01C501C6
:10099000B4010E94C51220E030E040E05FE30E9415
:1009A000541220E030E040E85FE30E9453126B01F4
:1009B0007C0120E030E040E450E40E94C01287FD5A
:1009C00011C020E030E04FE753E4C701B6010E94B8
:1009D0001F14181664F4C12CD12C9FE7E92E93E460
:1009E000F92E05C0C12CD12C80E4E82EFE2CC701C5
:1009F000B6010E943E13F62E8091120491E090936E
:100A00003C038093190410923D0310925E03809181
:100A1000130490911404DC01ED91FC910190F0819C
:100A2000E02D60E0099581E00E949400809112041D
:100A300090913B039111FCCF91E090933B039093F5
:100A40003A032FEF209339031092380310923703A3
:100A50009093160390911603880F892B80931603A9
:100A600080911503813061F4109215038091160373
:100A70008093BB008091BC0083FDF8CF85EC01C062
:100A800085EE8093BC0080913B038130E1F380913F
:100A90003803811103C09091380301C091E0A7E1B0
:100AA000B3E0E5EFF2E080E0891721F02D9121938A
:100AB0008F5FFACF1092F4028093F30280911304B7
:100AC00090911404DC01ED91FC910284F385E02DFA
:100AD0000995C82F682F6F76606180E00E94CC0175
:100AE0006F2D8EEF0E94CC016C2F80E00E94CC0114
:100AF00065E070E080E090E00E9425046C2F606A61
:100B000080E0CF91FF90EF90DF90CF90BF90AF90BB
:100B10009F908F900C94CC012FB7F8946091EE02C7
:100B20007091EF028091F0029091F1022FBF089531
:100B30000895CF92DF92EF92FF920F931F93CF937E
:100B4000DF936C017A018B01C0E0D0E0CE15DF05A8
:100B500081F0D8016D918D01D601ED91FC9101904C
:100B6000F081E02DC6010995892B11F02196EECF79
:100B70007E01C701DF91CF911F910F91FF90EF9000
:100B8000DF90CF900895FC01538D448D252F30E0E8
:100B9000842F90E0821B930B541710F0CF9608958A
:100BA00001970895FC01918D828D981761F0828DD7
:100BB000DF01A80FB11D5D968C91928D9F5F9F7391
:100BC000928F90E008958FEF9FEF0895FC01918D33
:100BD000828D981731F0828DE80FF11D858D90E0A0
:100BE00008958FEF9FEF0895FC01918D228D892F3D
:100BF00090E0805C9F4F821B91098F739927089525
:100C00008FE593E00E94F40521E0892B09F420E0B0
:100C1000822F0895FC01848DDF01A80FB11DA35A16
:100C2000BF4F2C91848D90E001968F739927848F0C
:100C3000A689B7892C93A089B1898C91837080642F
:100C40008C93938D848D981306C00288F389E02DD0
:100C500080818F7D80830895EF92FF920F931F9381
:100C6000CF93DF93EC0181E0888F9B8D8C8D98135F
:100C700005C0E889F989808185FD26C0F62E0B8D97
:100C800010E00F5F1F4F0F731127E02E8C8DE812BD
:100C90000CC00FB607FCFACFE889F989808185FF7F
:100CA000F5CFCE010E940A06F1CF8B8DFE01E80F31
:100CB000F11DE35AFF4FF0829FB7F8940B8FEA893A
:100CC000FB89808180620AC09FB7F894EE89FF8912
:100CD0006083E889F98980818370806480839FBF05
:100CE00081E090E0DF91CF911F910F91FF90EF9005
:100CF0000895CF93DF93EC01888D8823C9F0EA89AA
:100D0000FB89808185FD05C0A889B9898C9186FD04
:100D10000FC00FB607FCF5CF808185FFF2CFA88901
:100D2000B9898C9185FFEDCFCE010E940A06E7CFED
:100D3000DF91CF91089580E090E0892B29F00E9407
:100D4000000681110C940000089585ED8093BC008D
:100D50008091BC0084FDFCCF10923B03089540912C
:100D60005004262F30E0240F311D21323105DCF4F0
:100D700020913B032430C9F4FC0180E090E0861709
:100D800058F4309150042191DC01A05DBB4FA30FBA
:100D9000B11D2C930196F3CF80915004680F60939E
:100DA000500480E0089581E0089582E00895089558
:100DB00008950895E091F4028091F302E81730F469
:100DC000F0E0EB50FD4F808190E008958FEF9FEFB2
:100DD00008959091F4028091F302981750F4E92F4E
:100DE000F0E0EB50FD4F208130E09F5F9093F402E4
:100DF00002C02FEF3FEFC90108958091F30290E008
:100E00002091F402821B91090895CF92DF92EF9214
:100E1000FF920F931F93CF93DF937C01CB018A0145
:100E200020913C03222389F0EB016B01C40ED51EF7
:100E3000CC15DD0569F06991D701ED91FC91019028
:100E4000F081E02DC7010995F3CF642F0E94AF0612
:100E5000C801DF91CF911F910F91FF90EF90DF902C
:100E6000CF900895CF93DF931F92CDB7DEB76983FC
:100E700020913C032223D1F020915E03203240F0E8
:100E800021E030E0FC013383228380E090E015C054
:100E900080913D03E82FF0E0E25CFC4F9981908364
:100EA0008F5F80933D0380935E0305C061E0CE01B8
:100EB00001960E94AF0681E090E00F90DF91CF9104
:100EC0000895089580E090E008950E94E0150F9342
:100ED0001F93CF9382E00E94AC02C82F0E94400370
:100EE000AB01BC0180912C0490912D04A0912E04A3
:100EF000B0912F048A019B01081B190B2A0B3B0B95
:100F0000D901C8010097A140B10568F480912C0473
:100F100090912D04A0912E04B0912F049A01281BCA
:100F2000390BC90102C08FEF9FEF40932C045093FF
:100F30002D0460932E0470932F04E091C4024E2F71
:100F400050E04730510508F0B3C0FA01EC5CFF4FA8
:100F50000C94B914C13009F0ABC08EC1C111A8C046
:100F600087C19C012F5A31092F353140E8F4809117
:100F70002B0480FD15C08091270490912804A09136
:100F80002904B0912A04880F991FAA1FBB1F8160F2
:100F90008093270490932804A0932904B0932A04F3
:100FA00080912B048F5F1CC08D5092408F359140F3
:100FB000F0F48091270490912804A0912904B09125
:100FC0002A04880F991FAA1FBB1F809327049093A0
:100FD0002804A0932904B0932A0480912B048E5FE7
:100FE00080932B0480912B048E3120F447C1C111D2
:100FF00043C171C01092C40240912704509128044B
:101000006091290470912A0490912604852F82957D
:1010100086958770911104C08370809326042EC139
:1010200020912604837090E030E08217930709F046
:1010300025C187E0E9ECF2E0DF011D928A95E9F72E
:10104000842F8770805A8093CD02842F8695869551
:10105000869590E0409744E0880F991F4A95E1F704
:101060009093CA028093C902852F8F7190E04097B8
:1010700054E0880F991F5A95E1F79093CC02809322
:10108000CB020E948C056093D2027093D3028093AE
:10109000D4029093D50282E090E09093D1028093A5
:1010A000D00261E08DE0CF911F910F910C94D50299
:1010B0002091C402223069F128F4222361F021300A
:1010C00061F0DCC0243009F49AC008F445C0253032
:1010D00009F4D2C0D3C081E0CCC09C0127553A416D
:1010E0002339314110F482E0C4C08B5693408F35D0
:1010F000914008F0C1C086E08093C402109227049A
:10110000109228041092290410922A0410922B04A1
:10111000B5C09C012B523D402B3C384060F41092EE
:101120002704109228041092290410922A04109285
:101130002B0483E09EC0855996408736944008F082
:1011400097C00E948C056093D2027093D302809363
:10115000D4029093D5028CC0855A91408B31914036
:1011600008F08AC080912B04803208F446C0809138
:10117000270490912804A0912904B0912A04409159
:101180002704509128046091290470912A04892F22
:101190009A2FAB2FBB2784279527A627B7279927F8
:1011A000BB278F3F9105AF4FB10509F065C087E0C0
:1011B000E9ECF2E0DF011D928A95E9F780912704BE
:1011C00090912804A0912904B0912A04A093CD0203
:1011D0000E948C056093D2027093D3028093D40254
:1011E0009093D50281E090E09093D1028093D00259
:1011F00061E08DE00E94D5023FC084E03AC023E068
:101200002093C4024091270450912804609129043E
:1012100070912A04769567955795479540932704D2
:10122000509328046093290470932A0420912B047E
:101230002F5F20932B049C01205F34402D343340DA
:1012400090F48091270490912804A0912904B091F2
:101250002A04B0688093270490932804A09329045B
:10126000B0932A040BC0855A91408B31914030F0E5
:1012700085E08093C40202C01092C402CF911F91F6
:101280000F9108951F920F920FB60F9211242F9372
:101290003F934F935F936F937F938F939F93AF93FE
:1012A000BF93EF93FF93E0910201F0910301099541
:1012B000FF91EF91BF91AF919F918F917F916F912E
:1012C0005F914F913F912F910F900FBE0F901F9004
:1012D00018951F920F920FB60F9211242F933F93E0
:1012E0004F935F936F937F938F939F93AF93BF932E
:1012F000EF93FF93E0910001F09101010995FF91B7
:10130000EF91BF91AF919F918F917F916F915F917D
:101310004F913F912F910F900FBE0F901F901895F6
:101320001F920F920FB60F9211242F933F934F935A
:101330005F936F937F938F939F93AF93BF93EF933D
:10134000FF938FE593E00E940A06FF91EF91BF9112
:10135000AF919F918F917F916F915F914F913F914D
:101360002F910F900FBE0F901F9018951F920F9204
:101370000FB60F9211242F938F939F93EF93FF93A8
:10138000E0916F03F09170038081E0917503F0911B
:10139000760382FD12C09081809178038F5F8F73F6
:1013A00020917903821751F0E0917803F0E0E15A3F
:1013B000FC4F958F8093780301C08081FF91EF915E
:1013C0009F918F912F910F900FBE0F901F901895A6
:1013D0001F920F920FB60F9211242F933F934F93AA
:1013E0005F936F937F938F939F93AF93BF93EF938D
:1013F000FF938091B900887F803609F49CC068F51E
:10140000883209F45BC090F4803109F454C038F498
:10141000882309F4F6C0883009F44DC0F6C088313D
:1014200009F44CC0803209F45DC0EFC0803409F487
:1014300068C048F4803309F455C0883309F0E5C02A
:1014400080933903D8C0803509F44FC0883509F43A
:101450005DC0883409F0D9C0D6C0883909F4C7C046
:10146000A8F4883709F467C038F4883609F463C0F3
:10147000803709F460C0C9C0883809F4B8C0803921
:1014800009F45FC0803809F0C0C05BC0803B09F43C
:1014900086C038F4803A09F466C0883A09F47FC0FF
:1014A000B4C0803C09F4A7C0883C09F4A4C0883BC0
:1014B00009F48AC0AAC08091160310C09091380325
:1014C00080913703981770F5E091380381E08E0F13
:1014D00080933803F0E0E95EFC4F80818093BB008D
:1014E00085EC86C0809339038EC0E091380381E09B
:1014F0008E0F809338038091BB00F0E0E95EFC4FD3
:10150000808390913803809137036EC0E091380357
:1015100081E08E0F809338038091BB00F0E0E95E9C
:10152000FC4F808380913A0381116DC081E08093EC
:10153000150384EA61C083E080933B031092720438
:10154000CFCF80917204803208F051C0E0917204D4
:1015500081E08E0F809372048091BB00F0E0EE5A20
:10156000FB4F8083BDCF85EC8093BC0010923B0382
:1015700080917204803230F4E0917204F0E0EE5A0F
:10158000FB4F10826091720470E0E091C502F0910F
:10159000C60282E594E009951092720436C084E098
:1015A00080933B031092510410925004E091C702C3
:1015B000F091C802099580915004811105C081E025
:1015C0008093500410923004E091510481E08E0F1A
:1015D00080935104F0E0E05DFB4F80818093BB007D
:1015E0009091510480915004981708F479CF85E8C0
:1015F0008093BC000AC085EC8093BC0010923B0332
:1016000004C0109239030E94A506FF91EF91BF918B
:10161000AF919F918F917F916F915F914F913F918A
:101620002F910F900FBE0F901F901895EF92FF9281
:101630000F931F93CF93DF937C01C0E0D0E00BE3C7
:1016400016E0CE15DF0584F461E088E00E94D50243
:10165000C8010197F1F760E088E00E94D502C80157
:101660000197F1F72196EDCFDF91CF911F910F9167
:10167000FF90EF9008957F928F929F92AF92BF92CA
:10168000CF92DF92EF92FF920F931F93CF93DF934E
:10169000CDB7DEB728970FB6F894DEBF0FBECDBF2B
:1016A000962E7C018E010F5F1F4F6C0128E0C20E49
:1016B000D11C802E712E8EE6A82EB12CF7018191BF
:1016C0007F0198E0E1EAF2E0A82DB72D01900D929C
:1016D0009A95E1F7F8EC8F9FC0011124805A9F4042
:1016E000B5010E94911468537F4F613921E0720760
:1016F00050F4F80180810E948C0164E170E080E088
:1017000090E00E9425040F5F1F4FCE14DF04B1F656
:101710009092F2028091EE029091EF02A091F0027D
:10172000B091F1028093EA029093EB02A093EC0255
:10173000B093ED0228960FB6F894DEBF0FBECDBF72
:10174000DF91CF911F910F91FF90EF90DF90CF909D
:10175000BF90AF909F908F907F9008959093D70205
:101760008093D6020C943B0B1F920F920FB60F92F0
:1017700011242F933F938F939F93AF93BF938091A7
:10178000EE029091EF02A091F002B091F10230913F
:10179000730423E0230F2D3720F40196A11DB11D02
:1017A00005C026E8230F0296A11DB11D20937304E6
:1017B0008093EE029093EF02A093F002B093F102B7
:1017C0008091E5029091E602A091E702B091E802D3
:1017D0000196A11DB11D8093E5029093E602A093AE
:1017E000E702B093E802BF91AF919F918F913F9133
:1017F0002F910F900FBE0F901F901895CF92DF92F0
:10180000EF92FF920F931F93E82FF92F05C001501D
:1018100011092109310961F1908196239417B9F3D7
:1018200005C0015011092109310911F19081962358
:101830009413F7CFC12CD12CE12CF12C0AC08FEFDF
:10184000C81AD80AE80AF80A0C151D052E053F0526
:1018500079F080818623841791F36C2D7D2D8E2D58
:101860009F2D1F910F91FF90EF90DF90CF900895E3
:1018700060E070E080E090E01F910F91FF90EF90AA
:10188000DF90CF900895CF93DF93CDB7DEB72F973A
:101890000FB6F894DEBF0FBECDBF789484B58260DA
:1018A00084BD84B5816084BD85B5826085BD85B504
:1018B000816085BD80916E00816080936E00109282
:1018C00081008091810082608093810080918100FD
:1018D000816080938100809180008160809380008E
:1018E0008091B10084608093B1008091B0008160EC
:1018F0008093B00080917A00846080937A00809118
:101900007A00826080937A0080917A00816080936F
:101910007A0080917A00806880937A001092C100EA
:1019200061E08DE00E94040383E084BD85BD60E03A
:1019300082E00E94040387E697E090930101809380
:101940000001809169008C7F816080936900E89A32
:101950001092C40287E0E9ECF2E0DF011D928A9563
:10196000E9F761E081E10E94040361E081E10E9406
:10197000D50260E08EE00E94040361E08FE00E94E7
:10198000040361E088E00E94040362E083E00E94B7
:10199000040362E084E00E94040362E085E00E94A8
:1019A000040362E086E00E940403809102049091A7
:1019B000030497FD08C061E00E94040360E0809189
:1019C00002040E94D50211E01093FD030E946503FA
:1019D0001092F4021092F30210923D0310925E03F3
:1019E00010923B0310933A031092150361E082E1D9
:1019F0000E94D50261E083E10E94D5028091B90086
:101A00008E7F8093B9008091B9008D7F8093B9005B
:101A100088E48093B80085E48093BC0087ED96E06D
:101A20009093C8028093C70288ED96E09093C60217
:101A30008093C50260E880E00E94CC016AE070E01B
:101A400080E090E00E94250460E070E08AE794E482
:101A50000E94860480E498E7ADE7B1E08093150426
:101A600090931604A0931704B093180460E070E0FC
:101A700088E492E40E94860460E081E10E94D5023D
:101A800088E0EDE0F1E0DE01119601900D928A957B
:101A9000E1F761E0CE0101960E94AE0B60E870E0D4
:101AA000CB010E945F0484E690E00E94160BE09157
:101AB0006F03F091700382E08083E0916B03F091FB
:101AC0006C031082E0916D03F0916E0380E18083DE
:101AD00010927703E0917303F091740386E08083A2
:101AE000E0917103F0917203808180618083E091C5
:101AF0007103F0917203808188608083E0917103AB
:101B0000F0917203808180688083E0917103F0918D
:101B1000720380818F7D808346E150E069EA72E044
:101B20008FE593E00E94990542E050E060EC72E09E
:101B30008FE593E00E94990577E0972EE6E48E2EDC
:101B4000F8EA6F2EF1E67F2EA3E2AA2EB12C809147
:101B5000D2029091D302A091D402B091D502892BE8
:101B60008A2B8B2B09F4C3C00E948C050091D202F2
:101B70001091D3022091D4023091D502DC01CB0127
:101B8000801B910BA20BB30B1091E0028C329140A1
:101B9000A105B10508F08BC08091D0029091D102CF
:101BA000029709F070C04091C9025091CA02209179
:101BB000CB023091CC02BA0157FF04C066277727C9
:101BC000641B750BC90137FF04C088279927821B46
:101BD000930B860F971F883291050CF450C0DA01E1
:101BE00057FD1196B595A795E1E0A217B3070CF044
:101BF000E0E0B90137FF02C06F5F7F4F75956795D1
:101C0000461757070CF4EE5FB90137FF02C06F5F4C
:101C10007F4F7595679571956195710946175707BF
:101C20000CF4EC5F66277727621B730BA617B707C8
:101C30000CF4E85FF0E0EB5EFE4FE081E093CE0253
:101C4000E33759F020F4E13779F4C9010FC0E437E4
:101C500031F0E63749F4CB0109C0CA0107C0882733
:101C60009927841B950B02C0969587958F3F910508
:101C700019F010F08FEF90E08093CF0204C0109223
:101C8000CE021092CF02111108C08091CD0288239C
:101C900021F061E08DE00E94D50287E0E9ECF2E0FE
:101CA000ACEDB2E001900D928A95E1F773C011237B
:101CB00009F470C0ACEDB2E0E92D1D92EA95E9F7A8
:101CC00060E08DE00E94D5021092D2021092D30201
:101CD0001092D4021092D5020E948C056093D80213
:101CE0007093D9028093DA029093DB0253C0809103
:101CF000D8029091D902A091DA02B091DB02892B2F
:101D00008A2B8B2B51F40E948C056093D802709320
:101D1000D9028093DA029093DB020E948C05009135
:101D2000D8021091D9022091DA023091DB02DC0155
:101D3000CB01801B910BA20BB30B2091CD02222370
:101D400061F08D32F1E09F07A105B10530F0E9ECBB
:101D5000F2E0292D11922A95E9F717E0B695A7959B
:101D6000979587951A95D1F70097A105B10591F040
:101D70008F709927AA27BB270097A105B10511F4F9
:101D800061E005C00197A105B10521F460E08DE097
:101D90000E94D5021092D1021092D00287E0ECEDA1
:101DA000F2E0DE01199601900D928A95E1F78D859A
:101DB0009E853F84803629F0853621F480E1890FA5
:101DC00001C0892F9091E402981709F465C18093AE
:101DD000E402823509F448C1E8F5893109F4F4C018
:101DE000E8F48C3009F408C150F4883009F41CC1BF
:101DF000893009F4E1C0873009F046C1D5C085318A
:101E000009F44AC120F48D3009F446C13DC1863140
:101E100009F46AC0883109F4F7C036C1843409F482
:101E2000E3C078F4803409F4B7C020F48C3109F4AD
:101E300003C12AC1823409F40FC1833409F4CCC030
:101E400023C1873409F44BC008F426C18A3409F44D
:101E500013C11AC1833709F4AFC010F5833609F4F2
:101E60000BC178F48E3509F4D7C020F48A3509F413
:101E7000EBC00AC1813609F4C7C0823609F4ECC050
:101E800003C1803709F4A8C020F4843609F4ECC0FB
:101E9000FBC0813709F480C0823709F4A5C0F4C0C3
:101EA000803809F4A9C060F4853709F49DC008F4AE
:101EB0007BC0863709F488C0873709F48DC0E4C039
:101EC000833809F4C1C020F4813809F4ADC0DCC006
:101ED000843809F4B1C0863809F49EC0D5C088EBB7
:101EE0009BE00E94160BD8C082E390E00E94160B84
:101EF000B5E0CB2ED12C412CE12CFF24F394542CB3
:101F00005194442D01E010E0C80101972091FE0397
:101F10003091FF038217930740F52E2D201BFDEF14
:101F20002F2E240E253538F4422D50E060E070E06D
:101F300022E0250D18C02A3A60F4425050E060E0DB
:101F400070E0762F652F542F442721E0250D422B7A
:101F5000D5C12FEF240F452D50E060E070E0762FC3
:101F6000652F542F4427622BC9C10E94650365E089
:101F700070E080E090E00E94250481E0E81AF1081A
:101F8000ADEF4A0EE114F10409F0B9CFB1E0CB1A7C
:101F9000D10809F0B0CF80C06FEF70E080E090E032
:101FA0000E945F0481E076C060E870E880E090E025
:101FB0000E945F0486E06EC060E870E880E090E018
:101FC0000E945F0485E066C060E070E08FEF90E003
:101FD0000E945F0484E05EC060E07FEF80E090E0FC
:101FE0000E945F0482E056C060E07FEF80E090E0F6
:101FF0000E945F0483E04EC060E870E880E090E0FB
:102000000E945F0487E046C060E870E880E090E0EE
:102010000E945F0488E03EC060E870E880E090E0E5
:102020000E945F0489E036C060E870E880E090E0DC
:102030000E945F048AE02EC060E870E880E090E0D3
:102040000E945F048BE026C060E870E880E090E0CA
:102050000E945F048CE01EC060E870E880E090E0C1
:102060000E945F048DE016C060E870E880E090E0B8
:102070000E945F048EE00EC060E870E880E090E0AF
:102080000E945F048FE006C060E870E0CB010E9410
:102090005F0480E00E94170286E00E94AC02182FC5
:1020A000909104018091E302191771F111112CC074
:1020B00081111AC060E070E08FEF90E00E945F0431
:1020C0008982E5E5EA83F4E4FB838AE58C838D83EA
:1020D0008E838F83888767E0CE0101960E94AE0BC6
:1020E00080E18093E90208C060E870E0CB010E94C3
:1020F0005F0480E00E94170281E09091E302911159
:1021000080E08093E30207C0882329F08091F202E7
:10211000882309F4EBC0109304014091EE02509122
:10212000EF026091F0027091F1028091EA029091C9
:10213000EB02A091EC02B091ED02481B590B6A0B27
:102140007B0B8091F202823029F0873019F08111E7
:1021500014C048C040322FEB520722E062077105DD
:1021600018F00E94F70107C050FF05C061E08DE044
:102170000E94D50237C060E0FACF009105011091AE
:10218000060120E030E0401751076207730750F165
:102190008430B1F058F4813019F1833019F5809111
:1021A000D6029091D70264E0089617C0853079F086
:1021B0008630C1F463E08091D6029091D7020DC0C1
:1021C0008091D6029091D70265E0409606C080913A
:1021D000D6029091D70266E048960E943B0B02C05F
:1021E0000E94F70189E0831548F4632D70E0C30174
:1021F0000E94A514709306016093050160E08FE0D2
:102200000E94D50283E090E00197F1F761E08FE052
:102210000E94D502C5010197F1F760E08FE00E94AE
:10222000D502ECEAF0E06491EAECF0E08491E82F6A
:10223000F0E0EE0FFF1FE058FF4F8591949100E40E
:1022400012E42FE030E0462F0E94FE0B611571056D
:102250008105910549F0DC01CB010196A11DB11D5D
:10226000BC01CD019F7003C060E070E0CB010E9413
:102270006D136B017C0120E030E0A9010E941F1466
:1022800018169CF426E933E44BE85CE3C701B60179
:102290000E9424147B018C0120E030E040E051E4F6
:1022A0000E94C01287FF19C004C0E12CF12C00E08D
:1022B00010E020E030E040E251E4B701C8010E94A4
:1022C00024146B017C010E943713CB010E94160B72
:1022D000C701B6010E943E1304C062E370E080E0D3
:1022E00090E00E9425040E949B0631CC60E870E0DB
:1022F000CB010E945F041092E3020DCF0E942001E7
:102300000F5F1F4F422DF3E05F0EFECD1092620370
:102310001092610388EE93E0A0E0B0E08093630345
:1023200090936403A0936503B093660321E832E0C1
:102330003093600320935F0325EC30E030936C030F
:1023400020936B0324EC30E030936E0320936D03F5
:1023500020EC30E03093700320936F0321EC30E0E9
:10236000309372032093710322EC30E030937403B6
:102370002093730326EC30E03093760320937503AB
:10238000109278031092790310927A0310927B03D3
:1023900010921D0410921C0480931E0490931F043D
:1023A000A0932004B093210483E992E090931B044E
:1023B00080931A0480E4809312048AE194E090935D
:1023C0001404809313041092FD03109204041092DD
:1023D0000B0410920C0410920D0410920E0481E074
:1023E00080930A04809307041092080492E090936B
:1023F00009048093FC0388E190E0909301048093AA
:1024000000040E94BF149093060480930504009773
:1024100061F028E1FC0111922A95E9F788E090E04B
:102420009093FF038093FE0308C010920104109262
:1024300000041092FF031092FE0380E190E090935D
:102440000304809302048091FD03882341F061E03E
:1024500080E10E94040360E080E10E94D502ECEC80
:10246000F0E0E491F0E0EE0FFF1FEE54FF4F859196
:1024700094919093100480930F04EEEAF0E0E491BD
:10248000E0931104089580910504909106040E9440
:102490005715809102049091030497FD03C060E0FA
:1024A0000C94040308955058BB27AA270E946B126E
:1024B0000C94E5130E94D71338F00E94DE1320F02D
:1024C00039F49F3F19F426F40C94D4130EF4E095DC
:1024D000E7FB0C94CE13E92F0E94F61358F3BA17BA
:1024E000620773078407950720F079F4A6F50C942A
:1024F00018140EF4E0950B2EBA2FA02D0B01B90184
:1025000090010C01CA01A0011124FF27591B99F069
:10251000593F50F4503E68F11A16F040A22F232F75
:10252000342F4427585FF3CF469537952795A795C5
:10253000F0405395C9F77EF41F16BA0B620B730B6C
:10254000840BBAF09150A1F0FF0FBB1F661F771FDD
:10255000881FC2F70EC0BA0F621F731F841F48F492
:10256000879577956795B795F7959E3F08F0B0CF1B
:102570009395880F08F09927EE0F97958795089502
:102580000E94AA1308F481E008950E94D9120C94C5
:10259000E5130E94DE1358F00E94D71340F029F48F
:1025A0005F3F29F00C94CE1351110C9419140C9424
:1025B000D4130E94F61368F39923B1F3552391F3D2
:1025C000951B550BBB27AA2762177307840738F0A2
:1025D0009F5F5F4F220F331F441FAA1FA9F335D0FF
:1025E0000E2E3AF0E0E832D091505040E695001CB3
:1025F000CAF72BD0FE2F29D0660F771F881FBB1F6D
:10260000261737074807AB07B0E809F0BB0B802D4A
:10261000BF01FF2793585F4F3AF09E3F510578F076
:102620000C94CE130C9419145F3FE4F3983ED4F34A
:10263000869577956795B795F7959F5FC9F7880F4A
:10264000911D9695879597F90895E1E0660F771F9C
:10265000881FBB1F621773078407BA0720F0621B2D
:10266000730B840BBA0BEE1F88F7E09508950E9458
:102670003E136894B1110C94191408950E94FE132E
:1026800088F09F5798F0B92F9927B751B0F0E1F033
:10269000660F771F881F991F1AF0BA95C9F714C0E3
:1026A000B13091F00E941814B1E008950C94181400
:1026B000672F782F8827B85F39F0B93FCCF386951C
:1026C00077956795B395D9F73EF490958095709579
:1026D00061957F4F8F4F9F4F0895E89409C097FBF6
:1026E0003EF490958095709561957F4F8F4F9F4FE9
:1026F0009923A9F0F92F96E9BB279395F69587952D
:1027000077956795B795F111F8CFFAF4BB0F11F4EF
:1027100060FF1BC06F5F7F4F8F4F9F4F16C0882396
:1027200011F096E911C0772321F09EE8872F762FCC
:1027300005C0662371F096E8862F70E060E02AF00D
:102740009A95660F771F881FDAF7880F96958795F9
:1027500097F90895990F0008550FAA0BE0E8FEEFCE
:1027600016161706E807F907C0F012161306E40755
:10277000F50798F0621B730B840B950B39F40A264E
:1027800061F0232B242B252B21F408950A2609F42C
:10279000A140A6958FEF811D811D089597F99F6730
:1027A00080E870E060E008959FEF80EC08950024D9
:1027B0000A941616170618060906089500240A94A6
:1027C00012161306140605060895092E0394000C2C
:1027D00011F4882352F0BB0F40F4BF2B11F460FFBB
:1027E00004C06F5F7F4F8F4F9F4F089557FD9058E4
:1027F000440F551F59F05F3F71F04795880F97FBC5
:10280000991F61F09F3F79F087950895121613067E
:102810001406551FF2CF4695F1DF08C016161706AD
:102820001806991FF1CF86957105610508940895E2
:10283000E894BB2766277727CB0197F908950E9474
:10284000AA1308F48FEF08950E9437140C94E5132F
:102850000E94D71338F00E94DE1320F0952311F068
:102860000C94CE130C94D41311240C9419140E94BC
:10287000F61370F3959FC1F3950F50E0551F629FBB
:10288000F001729FBB27F00DB11D639FAA27F00DC9
:10289000B11DAA1F649F6627B00DA11D661F829FF0
:1028A0002227B00DA11D621F739FB00DA11D621FD5
:1028B000839FA00D611D221F749F3327A00D611DF2
:1028C000231F849F600D211D822F762F6A2F1124D4
:1028D0009F5750409AF0F1F088234AF0EE0FFF1F07
:1028E000BB1F661F771F881F91505040A9F79E3F5E
:1028F000510580F00C94CE130C9419145F3FE4F34F
:10290000983ED4F3869577956795B795F795E795B3
:102910009F5FC1F7FE2B880F911D9695879597F9BC
:102920000895AA1BBB1B51E107C0AA1FBB1FA61716
:10293000B70710F0A61BB70B881F991F5A95A9F768
:1029400080959095BC01CD01089597FB072E16F454
:10295000009407D077FD09D00E94911407FC05D0A0
:102960003EF4909581959F4F0895709561957F4FA6
:102970000895EE0FFF1F0590F491E02D09940F9339
:102980001F93CF93DF938230910510F482E090E0A3
:10299000E0917604F091770420E030E0A0E0B0E030
:1029A000309719F1408151810281138148175907ED
:1029B000C8F08417950769F4109731F012960C93BC
:1029C000129713961C9327C00093760410937704F4
:1029D00022C02115310519F04217530718F49A0146
:1029E000BD01EF01DF01F801DBCF21153105F9F061
:1029F000281B390B2430310580F48A819B816115B5
:102A0000710521F0FB019383828304C090937704C6
:102A100080937604FE01329644C0FE01E20FF31F5C
:102A20008193919322503109398328833AC02091B0
:102A3000740430917504232B41F4209109013091E5
:102A40000A0130937504209374042091070130919A
:102A500008012115310541F42DB73EB740910B0116
:102A600050910C01241B350BE0917404F091750416
:102A7000E217F307A0F42E1B3F0B2817390778F055
:102A8000AC014E5F5F4F2417350748F04E0F5F1FB4
:102A900050937504409374048193919302C0E0E0D5
:102AA000F0E0CF01DF91CF911F910F910895CF9367
:102AB000DF93009709F481C0FC01329713821282E0
:102AC000A0917604B0917704109781F42081318130
:102AD000820F931F209174043091750428173907D1
:102AE00051F5F0937504E093740467C0ED0120E0A4
:102AF00030E0CE17DF0740F44A815B819E0141152B
:102B00005105F1F0EA01F5CFD383C28340815181B1
:102B1000840F951FC817D90759F488819981840FAC
:102B2000951F0296918380838A819B819383828300
:102B30002115310529F4F0937704E09376043DC024
:102B4000E901FB83EA8349915991C40FD51FEC1722
:102B5000FD0761F480819181840F951F0296E90140
:102B600099838883828193819B838A83E0E0F0E06C
:102B700012968D919C911397009719F0FD01DC013D
:102B8000F7CF8D919C9111979D012E5F3F4F820F42
:102B9000931F20917404309175042817390769F444
:102BA000309729F4109277041092760402C01382B1
:102BB0001282B0937504A0937404DF91CF910895AD
:102BC00081E090E0F8940C94E51510E0C9E6D0E0BF
:102BD00004C0FE010E94B9142196CA36D107C9F774
:042BE000F894FFCF97
:102BE4009805980501C80000007804800046554403
:102BF4005A5A5A5A5A7370007100000072750000D4
:102C040000760077744655445A5A5A5A5A3AFF374E
:102C1400FF69FF67FF82FF82FF14FF14FF3AFF8200
:102C2400FF69FF14FF82FF37FF14FF67FF3AFF3786
:102C3400FF14FF14FF82FF82FF69FF67FF3AFF372B
:102C4400FF69FF67FF82FF82FF14FF14FF3AFF371B
:102C5400FF69FF67FF82FF82FF14FF14FF82FF8278
:102C6400FF69FF67FF3AFF37FF14FF14FF82FF82FB
:102C7400FF69FF67FF3AFF37FF14FF14FF3AFF377E
:102C8400FF69FF67FF3AFF82FF69FF14FF3AFF37CE
:102C9400FF69FF67FF3AFF82FF69FF14FFFF5AFFD6
:102CA4006EFF50FF3C50FF37FF69FF50FFFF3CFFB2
:102CB40050FF6EFF5A3AFF4BFF50FF67FFFF5AFF6A
:102CC4006EFF50FF3C3AFF4BFF50FF67FFFF3CFF96
:102CD40050FF6EFF5A50FF37FF69FF50FFFF5AFF46
:102CE40050FF50FF5A50FF37FF69FF50FFFF3CFF72
:102CF4006EFF6EFF3C3AFF4BFF50FF67FFFF5AFF2A
:102D040050FF50FF5A3AFF4BFF50FF67FFFF3CFF55
:102D14006EFF6EFF3C50FF37FF69FF50FFFF5AFF05
:102D240050FF6EFF3C3AFF4BFF50FF67FFFF3CFF35
:102D34006EFF50FF5A50FF37FF69FF50FFFF5AFFE5
:102D440050FF6EFF3C50FF37FF69FF50FFFF3CFF11
:102D54006EFF50FF5A3AFF4BFF50FF67FF00000021
:102D6400002C069905C3057906F405D205E605008D
:102D7400000000320705076207D906FD06E906DAF6
:102D84000601000504030207064E6F726D616C3A7A
:102D94002051756164437261776C6572312E300025
:042DA4000D0A000014
:00000001FF
